:100000000C9497070C94BF070C94BF070C94BF0780
:100010000C94BF070C94BF070C94BF070C94BF0748
:100020000C94BF070C94BF070C9480140C94F2142A
:100030000C94BF070C94BF070C94BF070C94BF0728
:100040000C94BF070C94810A0C94BF070C94BF0753
:100050000C94BF070C94BF070C94BF070C94940931
:100060000C94BF070C94BF070C94BF070C94BF07F8
:100070000C94BF070C94BF070C94BF070C94BF07E8
:100080000C941F0B0C94BF070C94BF070C94BF0774
:100090000C94BF070C94BF070C94BF070C94BF07C8
:1000A0000C94BF070C94BF070C94BF071D082008D1
:1000B0000F081308170841084108410824082808B8
:1000C0002C083208360841083C08B808BD08C208A8
:1000D000CC08D608200920092009E008EA08F4081D
:1000E000FE080B0920091309F0F89C8E8783878E80
:1000F0009CF8F00000FEFF0303030303070EFCF867
:100100000000FEFF0303030303070EFCF80000FFDB
:10011000FF00000000000000FFFF0000FEFF8383DF
:10012000838383C7EE7C380000F8FC0E07030303CB
:10013000070EFCF800003F7FE0C08080C0E07F3FFA
:10014000FFFF01010101010101FFFF0000FFFF0CA2
:100150000C0C0C1C3E77E3C100007FFFC0C0C0C088
:10016000C0E0703F1F00001F3F70E0C0C0C0E070E3
:100170003F1F00007FFFC1C1C1C1C1E3773E1C002A
:10018000001F3F70E0C0C0C0E0703F1F00000000D3
:100190000001FFFF01000000000000002400270014
:1001A0002A002D003000D5F08D14A1C881CFD9F1DF
:1001B000AF20001402130212021502070208020403
:1001C000010C010601001824424A52422418FF8102
:1001D000A995A99581FF7E81A599A581817EFF8141
:1001E00081BD818181FFFF8189BD898981FF7E81F8
:1001F000A5817E3C2466FF81FF81FF81FF81FF8115
:10020000FF81FF81FFFFFF81FF81FFFFFFFFFF8174
:10021000FFFFFFFFFFFFFFFFFFFFFFFFFFFF1E3F8F
:100220007EFCFC7E3F1E000000000000000000007D
:1002300000000000000000000000000000000000BE
:1002400000000000000000000000000000000000AE
:10025000000000000000000007C1003FE0300FF088
:10026000000000001FE1003FC0700C78000000009B
:1002700038310020007808180000000030310020DC
:100280000058080C000000006001002000C8080CA5
:10029000000000006001002000CC081800000000F1
:1002A0006001003F818C0C78000000006001003F7D
:1002B000C1860FE000000000600100200106083048
:1002C000000000006001002003FE08100000000094
:1002D0006011002003FF08180000000030310020EA
:1002E0000203081800000000383100200601080C45
:1002F000000000001FE1FF3FC601880C0000000065
:1003000007C1FF3FE4018804000000000000000076
:1003100000000000000000000000000000000000DD
:1003200000000000000000000000000000000000CD
:1003300000000000000000000000000000000000BD
:1003400000000000000000000000000000000000AD
:10035000000000000000003FFC0000000000000062
:100360007E000061E70000000000000076000087CA
:100370003DC0000000000000F000011C0240000031
:100380000000000090000320022000000000000098
:10039000880006618110000000000000CFE004C367
:1003A0008190000000000000FF70048E00980000A3
:1003B000000000007E300C9E00C80000000000001D
:1003C00003100990004800000000000001300910EF
:1003D0000048F0000000000000B009180048980034
:1003E000000000000CE00518004888000000000034
:1003F0000FC0059800480E000000000003000488AC
:1004000000580B0000000000000004C400D11900D7
:10041000000000000000066001B1F30000000000D1
:10042000000002200360E2800000000000000330B2
:1004300002C020800000000000000190018043C045
:100440000000000000003EFE0FFC424000000000E3
:100450000001E3A3F807E0800000000000010000B5
:100460000000818000000000000F0000000000007C
:10047000000000000001F9F0000000000000000092
:10048000000007001C000000000000000000000841
:100490003FE20000000000000000000010C0390032
:1004A00000000000000000000021823C80060000E7
:1004B000000000000000410624C009000000000008
:1004C000000000811F064010800000C000000001F5
:1004D000813E02401080000120000000010338032B
:1004E000200900000210000000010238012006006F
:1004F0000002100000000102700130000000012025
:10050000000000010270019000000000C000000027
:100510000102700090000000000000000001027065
:1005200000500000000000000000010278005000B0
:10053000000000000000000103080050000000005F
:1005400000000000008100005000000000000000DA
:100550000000808000D0000000000000000000804B
:10056000C0009000000000000000000040400310A8
:10057000000000000000000000403FFE10000000EE
:10058000000000000000400000103E1FC3FF3F803D
:1005900000000060000020000000000000000000DB
:1005A0007C000070000000000000000001A3F3F0D8
:1005B000D0000003FF0000000001201E001000001A
:1005C0000000000000000F0000003F0000000000DD
:1005D00000000008C00001C1C00003FF00000000CF
:1005E00018700380003000000000000000680FFE5B
:1005F0000000180000000000000046000000000C91
:1006000000000000000000C38000000006000000A1
:1006100000000000B0FFC000000200000000000069
:10062000009C000000000200000000000000878F16
:10063000F800000200000000000000000000003E82
:100640005B4F5B3E3E6B4F6B3E1C3E7C3E1C183C42
:100650007E3C181C577D571C1C5E7F5E1C00183C9E
:100660001800FFE7C3E7FF0018241800FFE7DBE7E7
:10067000FF30483A060E2629792926407F050507CE
:10068000407F05253F5A3CE73C5A7F3E1C1C08082A
:100690001C1C3E7F14227F22145F5F005F5F0609EF
:1006A0007F017F006689956A606060606094A2FF48
:1006B000A29408047E040810207E201008082A1C3A
:1006C00008081C2A08081E101010100C1E0C1E0C06
:1006D00030383E3830060E3E0E06000000000000A6
:1006E000005F00000007000700147F147F14242A15
:1006F0007F2A1223130864623649562050000807E7
:100700000300001C2241000041221C002A1C7F1C07
:100710002A08083E08080080703000080808080809
:10072000000060600020100804023E5149453E0070
:10073000427F400072494949462141494D331814CE
:10074000127F1027454545393C4A4949314121111D
:1007500009073649494936464949291E000014000F
:100760000000403400000008142241141414141432
:10077000004122140802015909063E415D594E7C90
:100780001211127C7F494949363E414141227F4145
:1007900041413E7F494949417F090909013E4141A3
:1007A00051737F0808087F00417F41002040413F8E
:1007B000017F081422417F404040407F021C027F9D
:1007C0007F0408107F3E4141413E7F090909063EF2
:1007D0004151215E7F0919294626494949320301C1
:1007E0007F01033F4040403F1F2040201F3F4038D3
:1007F000403F631408146303047804036159494DAE
:1008000043007F4141410204081020004141417FE3
:100810000402010204404040404000030708002059
:10082000545478407F284444383844444428384459
:1008300044287F385454541800087E090218A4A490
:100840009C787F0804047800447D40002040403DAF
:10085000007F1028440000417F40007C0478047829
:100860007C080404783844444438FC1824241818BC
:10087000242418FC7C080404084854545424040418
:100880003F44243C4040207C1C2040201C3C403005
:10089000403C44281028444C9090907C4464544C34
:1008A000440008364100000077000000413608008F
:1008B00002010204023C2623263C1EA1A161123A39
:1008C0004040207A38545455592155557941215486
:1008D000547841215554784020545579400C1E528B
:1008E000721239555555593954545459395554542F
:1008F000580000457C410002457D420001457C4096
:10090000F0292429F0F0282528F07C5455450020B2
:1009100054547C547C0A097F49324949493232484F
:10092000484832324A4848303A4141217A3A4240B6
:100930002078009DA0A07D39444444393D4040408A
:100940003D3C24FF2424487E4943662B2FFC2F2B5B
:10095000FF0929F620C0887E0903205454794100FC
:1009600000447D413048484A32384040227A007A7B
:100970000A0A727D0D19317D2629292F2826292959
:10098000292630484D40203808080808080808087B
:10099000382F10C8ACBA2F102834FA00007B0000A2
:1009A00008142A142222142A14089500220095AA59
:1009B000005500AAAA55AA55AA000000FF00101071
:1009C00010FF00141414FF001010FF00FF1010F0AF
:1009D00010F0141414FC001414F700FF0000FF00C2
:1009E000FF1414F404FC141417101F10101F101F10
:1009F0001414141F00101010F0000000001F10103D
:100A000010101F10101010F010000000FF10101038
:100A1000101010101010FF10000000FF140000FF55
:100A200000FF00001F10170000FC04F4141417103E
:100A3000171414F404F40000FF00F7141414141431
:100A40001414F700F7141414171410101F101F14A7
:100A50001414F4141010F010F000001F101F000008
:100A6000001F14000000FC140000F010F01010FF34
:100A700010FF141414FF141010101F00000000F0D9
:100A800010FFFFFFFFFFF0F0F0F0F0FFFFFF0000AE
:100A9000000000FFFF0F0F0F0F0F38444438447C55
:100AA0002A2A3E147E02020606027E027E02635558
:100AB0004941633844443C04407E201E2006027EA7
:100AC000020299A5E7A5991C2A492A1C4C720172B9
:100AD0004C304A4D4D303048784830BC625A463D23
:100AE0003E494949007E0101017E2A2A2A2A2A44D8
:100AF000445F444440514A444040444A514000000D
:100B0000FF0103E080FF000008086B6B0836123617
:100B10002436060F090F06000018180000001010F8
:100B2000003040FF0101001F01011E00191D1712B6
:100B3000003C3C3C3C000000000006011501260181
:100B400037014A015D01720188019F01B801D2019C
:100B5000EE010B022A024B026E029302BA02E40279
:100B600010033F037003A403DC0317045504970428
:100B7000DD0427057505C80520067D06E006490742
:100B8000B8072D08A9082D09B9094D0AEA0A900BE2
:100B9000400CFA0CC00D910E6F0F5A1053115B12DE
:100BA00072139A14D41520178018F519801B231D71
:100BB000DE1EB420A622B524E4263429A72B402E1D
:100BC0000031EA330037453ABC3D68414C456B493A
:100BD000C84D68524F57805C0062101112131516F1
:100BE00017181A1C1D1F21232527292C2E313437B5
:100BF0003A3E4145494E52575C62686E757B838B25
:100C0000939CA5AFB9C4D0DCE9F70000000200094D
:100C10000F0000030401000C0000000000000000B1
:100C200000000000000000000004080201104080E5
:100C300040102040804080080204018040201002C3
:100C400001108010204040200000000025002800F6
:100C50002B002E00310004040404040304050202E6
:100C60000202040302020202060606060606040445
:100C70000202020404030100000000000000000062
:100C80000000000000000000000000000000000064
:100C90000000000000000000000000000000000054
:100CA0000000000000000000000000000000000044
:100CB0000000000000000000000000000000000034
:100CC0000000000000000000000000000000000024
:100CD0000000000000000000000000000000000014
:100CE0000000000000000000000000000000000004
:100CF00000000000000000000000000000000000F4
:100D00000000000000000000007E0FFF0600FF83CF
:100D1000FFC0000000FF0FFF0F00FFE3FFC0000057
:100D2000018380600F00C0601800000001818060B6
:100D30000F00C06018000000030080601B80C030FE
:100D400018000000038000601980C06018000000D7
:100D5000018000603980C0601800000001E0006080
:100D600030C0C0E01800000000FE006030C0FFC0CE
:100D700018000000001F806070C0FF801800000095
:100D8000000380606060C1C0180000000000C06007
:100D90007FE0C0C0180000000000C060FFF0C0602D
:100DA000180000000300C060C030C06018000000E0
:100DB0000380C060C030C0601800000001C18061C5
:100DC0008018C0301800000000FF80618018C0301B
:100DD00018000000007E00618018C030180000007C
:100DE0000000000000000000000000000000000003
:100DF00000000000000000000000000000000000F3
:100E000000000000000000000000000000000000E2
:100E100000000000000000000000000000000000D2
:100E200000000000000000000000000000000000C2
:100E300000000000000000000000000000000000B2
:100E400000000000000000000000000000000000A2
:100E50000000000000000000000000000000000092
:100E60000000000000000000000000000000000082
:100E70000000000000000000000000000000000072
:100E80000000000000000000000000000000000062
:100E90000000000000000000000000000000000052
:100EA0000000000000000000000000000000000042
:100EB00000000000000000080B000202020100090F
:100EC00004000001020200000524001001052401B5
:100ED0000101042402060524060001070581031010
:100EE000004009040100020A000000070502024058
:100EF00000000705830240000004030904120100FA
:100F000002EF02014041233680000101020301414A
:100F1000726475696E6F204C4C4300417264756950
:100F20006E6F204C656F6E6172646F00621F1124DA
:100F30001FBECFEFDAE0DEBFCDBF11E0A0E0B1E031
:100F4000EEE2F5E402C005900D92AE39B107D9F793
:100F500026E0AEE9B1E001C01D92A03CB207E1F786
:100F600017E0C7E9D7E004C02197FE010E9476226E
:100F7000C639D107C9F70E9422170C9495220C9408
:100F80000000CF92DF92EF92FF920F931F93CF93C7
:100F9000DF936C017A018B01C0E0D0E0CE15DF0554
:100FA00089F0D8016D918D01D601ED91FC910190F0
:100FB000F081E02DC6010995892B11F47E0102C054
:100FC0002196ECCFC701DF91CF911F910F91FF9038
:100FD000EF90DF90CF900895089580E090E008951D
:100FE0000E949022362F90E0FC01E65FF34F44917F
:100FF000FC01E75DF34F2491FC01EA5AF34F849121
:10100000882309F451C04423E1F150E0FA013197FB
:10101000EF30F105B0F5EA5AFF4F0C94762290912B
:1010200080009F7707C0909180009F7D03C09091C2
:101030008000977F9093800024C094B59F7702C072
:1010400094B59F7D94BD1DC0909190009F7707C07F
:10105000909190009F7D03C090919000977F909316
:1010600090000FC09091C0009F7703C09091C00086
:101070009F7D9093C00005C09091C200977F909390
:10108000C200E82FF0E0EE0FFF1FE85BF34FA591E1
:10109000B4918FB7F894EC91311103C020952E23B1
:1010A00001C02E2B2C938FBF0895CF93DF9390E038
:1010B000FC01E75DF34F2491FC01EA5AF34F849160
:1010C000882361F190E0880F991FFC01E856FE4FDC
:1010D000C591D491FC01E85BF34FA591B4916111E6
:1010E00009C09FB7F8948881209582238883EC916A
:1010F0002E230BC0623061F49FB7F8943881822FA1
:10110000809583238883EC912E2B2C939FBF06C060
:101110008FB7F894E8812E2B28838FBFDF91CF9172
:1011200008951F93CF93DF93182FEB0161E00E9486
:101130005508209711F460E004C0CF3FD10539F481
:1011400061E0812FDF91CF911F910C94F207E12F85
:10115000F0E0E65FF34FE4914E2F50E0FA01319753
:10116000EF30F10508F06CC0EB59FF4F0C9476227C
:1011700084B5806884BDC7BD68C084B5806284BD05
:10118000C8BD63C080918000806880938000D09348
:101190008900C093880059C080918000806280934C
:1011A0008000D0938B00C0938A004FC08091800054
:1011B000886080938000D0938D00C0938C0045C0E0
:1011C00080919000806880939000D0939900C093A4
:1011D00098003BC080919000806280939000D093F3
:1011E0009B00C0939A0031C08091900088608093EA
:1011F0009000D0939D00C0939C0027C08091C000B8
:1012000080688093C0008091C0008F7B8093C00075
:10121000C093CF001AC08091C00080628093C0004C
:10122000C093D00012C08091C20088608093C20039
:101230008091C2008B7F8093C200C093D20005C012
:10124000C038D1050CF07CCF76CFDF91CF911F91C4
:1012500008953FB7F8948091C7019091C801A0917B
:10126000C901B091CA0126B5A89B05C02F3F19F04E
:101270000196A11DB11D3FBFBA2FA92F982F882716
:10128000820F911DA11DB11DBC01CD0142E0660F71
:10129000771F881F991F4A95D1F708958F929F92C3
:1012A000AF92BF92CF92DF92EF92FF926B017C01DF
:1012B0000E9429094B015C01C114D104E104F1042D
:1012C000F1F00E942909DC01CB0188199909AA09CA
:1012D000BB09883E9340A105B10570F321E0C21A15
:1012E000D108E108F10888EE880E83E0981EA11C61
:1012F000B11CC114D104E104F10419F7DDCFFF9052
:10130000EF90DF90CF90BF90AF909F908F90089517
:101310002FB7F8946091C3017091C4018091C50109
:101320009091C6012FBF08951F920F920FB60F9292
:1013300011242F933F938F939F93AF93BF938091EB
:10134000C3019091C401A091C501B091C601309133
:10135000C20123E0230F2D3720F40196A11DB11DFA
:1013600005C026E8230F0296A11DB11D2093C201DE
:101370008093C3019093C401A093C501B093C601AB
:101380008091C7019091C801A091C901B091CA0193
:101390000196A11DB11D8093C7019093C801A09330
:1013A000C901B093CA01BF91AF919F918F913F91B5
:1013B0002F910F900FBE0F901F9018958FB12CB1E9
:1013C00093B130E02095309520743327A90123E0B4
:1013D000559547952A95E1F7292F30E020953095CE
:1013E000207133273595279535952795242B8095A2
:1013F000807F822B0895FC0121912EBD9C5F21915D
:101400000DB407FEFDCF2EBDE817F907C1F70DB4E7
:1014100007FEFDCF0895CF92DF92EF92FF920F93D8
:101420001F93CF93E82FF0E0EB58F34FC491E62FD2
:10143000F0E0603330F4E652F44FE4910E2F10E008
:1014400006C0EE0FFF1FE652F54F0591149168019B
:10145000E12CF12C60E074E284EF90E0A7019601AA
:101460000E943320BA01A901415051096109710953
:101470004115510581E06807710580F060E970ED64
:1014800083E090E0A70196010E943320BA01A901F0
:10149000415051096109710983E001C081E0C13007
:1014A000C9F0C33031F590919100987F892B8093DA
:1014B000910050939900409398001093C1010093BC
:1014C000C00181E08093BF018091710082608093B0
:1014D00071000FC090918100987F892B80938100CB
:1014E000509389004093880080916F0082608093C0
:1014F0006F00CF911F910F91FF90EF90DF90CF90F1
:1015000008951F920F920FB60F9211242F933F93BD
:101510008F939F93AF93BF93EF93FF938091DA01E3
:10152000882309F44DC08091D6019091D701A091F4
:10153000D801B091D901892B8A2B8B2B51F1809145
:10154000D201E091D301F091D40190818927808369
:101550008091D6019091D701A091D801B091D90185
:10156000181619061A061B06A4F58091D60190914B
:10157000D701A091D801B091D9010197A109B10972
:101580008093D6019093D701A093D801B093D9014D
:1015900020C01092DA0180916F008D7F80936F00E0
:1015A0009091D201E091D301F091D4018081282F54
:1015B00030E0892F90E0809590958223932308C096
:1015C0008091D201E091D301F091D40190818927DB
:1015D0008083FF91EF91BF91AF919F918F913F9148
:1015E0002F910F900FBE0F901F901895E82FF0E0ED
:1015F000EB58F34FE491E13019F0E33069F00895CE
:1016000080916F008D7F80936F009091D201E09167
:10161000D301F091D40108C01092BF019091CF0185
:10162000E091D001F091D1018081282F30E0892F05
:1016300090E08095909582239323808308951F9254
:101640000F920FB60F9211242F933F934F935F93F6
:101650006F937F938F939F93AF93BF93EF93FF937A
:101660008091BF01882349F08091CF01E091D001A2
:10167000F091D10190818927808380919E018823F8
:1016800009F493C08091BB019091BC01A091BD0170
:10169000B091BE01892B8A2B8B2B09F486C08091D7
:1016A000BB019091BC01A091BD01B091BE01019719
:1016B000A109B1098093BB019093BC01A093BD0126
:1016C000B093BE01892B8A2B8B2B09F06EC0E09161
:1016D000B901F091BA01BF016F5F7F4F7093BA01FA
:1016E0006093B9014491942F907F842F8F7090382C
:1016F00019F40E94F60AEBCF903981F43296F093F8
:10170000BA01E093B901FB0164919091D501891769
:10171000F0F667FDDCCF0E940B0AD9CF903E29F48A
:101720001092BA011092B901D2CF903F19F41092E1
:101730009E013BC097FDCBCF3296F093BA01E09368
:10174000B901FB01249130E0342BA091C001B0918C
:10175000C1010E9487206C507E4F8F4F9F4F28EE13
:1017600033E040E050E00E9465202093BB013093BD
:10177000BC014093BD015093BE018091BB0190918B
:10178000BC01A091BD01B091BE01892B8A2B8B2B8E
:1017900061F481E090E0A0E0B0E08093BB01909321
:1017A000BC01A093BD01B093BE01FF91EF91BF9129
:1017B000AF919F918F917F916F915F914F913F91E9
:1017C0002F910F900FBE0F901F90189560387105E4
:1017D00018F54034510500F5A42FA695A695A695B9
:1017E000B0E047705527B695BA2FAA27B795A795A9
:1017F0006A0F7B1FFC01E60FF71F81E090E001C03C
:10180000880F4A95EAF7222319F09489892B03C09F
:10181000809594898923848B08952F923F924F92CB
:101820005F926F927F928F929F92AF92BF92CF9270
:10183000DF92EF92FF920F931F93CF93DF93CDB779
:10184000DEB72A970FB6F894DEBF0FBECDBF6A3061
:1018500091F4FC01E85EFB4F408132972081318199
:1018600058E0459F200D311D11243183208332978C
:1018700011821082C1C06D3009F4BEC09A87898779
:10188000885E9B4F9C838B83DC012C90E985FA85D5
:10189000EA5EFB4F60807180E985FA85EC5EFB4F64
:1018A000FA83E9830081118100381105D4F0AB81FE
:1018B000BC812C91422F50E0E981FA818081918195
:1018C000F6E02F9F800D911D1124A981BA818D937F
:1018D0009C93E985FA85E75EFB4F208121115EC06C
:1018E0008BC0B0E46B16710414F7C801E5E02E9EBE
:1018F000800D911D112418161906CCF6422C512C7E
:10190000C301F8E02F9E800D911D112418161906B1
:1019100074F655E0659F900111243F832E83E12CDE
:10192000F12C85E0E816F10441F0EE81FF81EE0D27
:10193000FF1DE65CF94F349001C0312C630138E0A3
:10194000932D91709D834801882D801B8215B0F4E2
:1019500056018A2D8C19821568F42D81A501B401D8
:1019600089859A8538870E94E60BAFEFAA1ABA0AD2
:101970003885EFCFBFEF8B1A9B0AE6CF36943150F4
:10198000C40CD51C3111DCCFEFEFEE1AFE0A040DAA
:10199000151DF6E0EF16F10421F689CF6AEF640316
:1019A0009001659F300D112420583F4F28173907AB
:1019B0001CF5A985BA85ED91FC9111970190F081F4
:1019C000E02D6AE0CD012A960FB6F894DEBF0FBE77
:1019D000CDBFDF91CF911F910F91FF90EF90DF90DE
:1019E000CF90BF90AF909F908F907F906F905F90BF
:1019F0004F903F902F9009942A960FB6F894DEBF2F
:101A00000FBECDBFDF91CF911F910F91FF90EF904F
:101A1000DF90CF90BF90AF909F908F907F906F900E
:101A20005F904F903F902F900895E7E4F1E0A3E09E
:101A3000B1E081918D9381E0E735F807D1F7089502
:101A40002F923F924F925F926F927F928F929F92CE
:101A5000AF92BF92CF92DF92EF92FF920F931F93BC
:101A6000CF93DF9300D000D000D0CDB7DEB78DED9F
:101A7000E82E81E0F82E9AE0C92ED12C212C312CB1
:101A800022E2422E512C612C712C812C912C30E2BF
:101A9000A32E32E4B32E80913C0190E02816390643
:101AA0000CF088C0C60183529E4F9A8389830297A7
:101AB0009C838B83FC018081811144C080913D0116
:101AC000882381F0B6010D2C000C880B990B0E9425
:101AD0004021F7016083718382839383848295829E
:101AE000A682B7820E941D202EE630E040E050E042
:101AF0000E9433208B01065F1F4F0E941D20A3010F
:101B000092010E943320AB01465F5F4F8091170125
:101B1000909118019C012F50310902171307E4F02E
:101B2000479680179107C4F08091DB019091DC010A
:101B30009C012F5031094217530774F047968417C0
:101B4000950754F0FFEF2F1A3F0A8AE0E80EF11CC8
:101B50009AE0C90ED11C9FCFB801110F880B990BC9
:101B60004D835E830E944021F701608371838283ED
:101B700093834D815E81BA01550F880B990B0E94AA
:101B80004021F70164837583868397830E941D201B
:101B900009811A810150110920E530E040E050E050
:101BA0000E943320685DF801608381E0EB81FC8155
:101BB0008083C8CF26960FB6F894DEBF0FBECDBF88
:101BC000DF91CF911F910F91FF90EF90DF90CF9019
:101BD000BF90AF909F908F907F906F905F904F904D
:101BE0003F902F9008952F923F924F925F926F9265
:101BF0007F928F929F92AF92BF92CF92DF92EF929D
:101C00000F931F93CF93DF93C0E0D0E082E3A82E21
:101C1000B12C9EE1C92ED12C2CE2822E912C36E3E0
:101C2000632E712C6EE170E080E090E00E944E091E
:101C30000E94B61184E290E0909356068093550678
:101C400081E090E090935806809357068EE791E0EC
:101C50000E946311EE24E39404E228E646E654E091
:101C60006CE070E08EE090E00E94C910CE01019619
:101C7000B5010E9462228C01EC0180919F0190913C
:101C8000A001181619069CF5D0925606C09255066A
:101C9000909258068092570687E891E00E9463115F
:101CA00020909F013090A001032C000C440855089F
:101CB00057FE14C0E0914102F09142020190F08180
:101CC000E02D6DE281E492E0099566277727CB014C
:101CD00062197309840995094AE003C04AE0C20108
:101CE000B1010E9475118FE891E00E9463110931E2
:101CF000110564F4D0925606C092550670925806AB
:101D00006092570681E991E00E94631185E592E0B7
:101D10000E94FB090E94DE0983FD04C00E94DE09C7
:101D200082FF80CFDF91CF911F910F91EF90DF90D5
:101D3000CF90BF90AF909F908F907F906F905F906B
:101D40004F903F902F9008952FB7F89483E08093A1
:101D5000E9009091E800892F807295FF04C090916E
:101D6000F20080E4891B2FBF0895CF93DF931F9269
:101D7000CDB7DEB76983DC01ED91FC910280F38180
:101D8000E02D41E050E0BE016F5F7F4F09950F905D
:101D9000DF91CF91089583E08093E9008091F20074
:101DA000882319F08AE38093E80008950E94A40E26
:101DB00090E008958F929F92AF92BF92CF92DF9260
:101DC000EF92FF920F931F93CF93DF935C016B0110
:101DD0007A0180912001882309F45BC08091CE01B3
:101DE000882309F456C08091CC0180FF05C0809102
:101DF000E00082608093E000E70110E00AEF83E0FA
:101E0000882E9AE3992E2097D9F10E94A40E811171
:101E10000AC0015009F43DC061E070E080E090E04C
:101E20000E944E09F0CF282F30E0C217D3070CF4E0
:101E30008C2F4FB7F8948092E9009091E80095FFBD
:101E40001DC0282F30E0C21BD30BF601982F9150F4
:101E500020F081918093F100FACFC20ED31E11239E
:101E600019F09092E80009C08091E80085FD06C055
:101E70009092E80011E0209709F010E04FBFC3CF27
:101E80001111C3CF5D9884E68093CB011E141F040B
:101E900044F081E090E0F5019383828380E090E05C
:101EA00001C0C701DF91CF911F910F91FF90EF907B
:101EB000DF90CF90BF90AF909F908F9008952F921A
:101EC0003F924F925F926F927F928F929F92AF92CA
:101ED000BF92CF92DF92EF92FF920F931F93CF9317
:101EE000DF93CDB7DEB728970FB6F894DEBF0FBEED
:101EF000CDBF222E312C9C01220D331D37FD30C168
:101F0000803891050CF02CC19B01200F311D37FD4D
:101F100027C1603471050CF023C1DB0177FF04C0D9
:101F2000AA27BB27A61BB70BA770BB279B0177FF70
:101F300002C0295F3F4F13E0359527951A95E1F7C9
:101F400077FF08C02150310968E070E05B01AA1AF0
:101F5000BB0AD501E02FE695E695E695CE2ED12C6D
:101F6000077019F00FEFC01AD00AB9017695762FD5
:101F7000662777956795680F791F5601A20EB31EE5
:101F8000BC82AB82412C512CF8E0CF2ED12C8601A3
:101F90000A1B1B0B1A830983AB80BC802A153B05E7
:101FA00009F4DEC02830310509F4DAC02F3F1FEFF5
:101FB00031070CF4CAC03B01E0E86E0E711C8B01C6
:101FC0000B521D4F1E830D834C0100E010E00215E3
:101FD00013050CF0BAC0E0E88E16910409F4B5C000
:101FE00097FCA8C02F3FFFEF3F0709F4B5C0F801E9
:101FF000E40DF51DCD80DE80C618D708AA24A39471
:10200000E40FF51FEA1013C0E491C60ED71EF0E0EE
:102010005F010A2E02C0AA0CBB1C0A94E2F7B88624
:10202000AF82F601B080EF81F885EB292BC0E1107B
:1020300017C0E491C60ED71EF0E00A2E02C0EE0FC4
:10204000FF1F0A94E2F75F01A094B094B886AF82B4
:10205000F601A080B12CEF81F885AE22BF2213C01B
:10206000E491C60ED71EF0E05F010A2E02C0AA0C52
:10207000BB1C0A94E2F7B886AF82F601B080EF810C
:10208000F885EB255F01F601A082109709F452C094
:102090002730310509F44EC0F801E40DF51DAA24DE
:1020A000A394EA1011C0E40FF51FE491CE2ED12CB9
:1020B0005601098002C0B594A7940A94E2F7ED8115
:1020C000FE81D080AD2835C0CD80DE80C618D7080F
:1020D000E40FF51FE11018C0E491C60CD71CAE2E1A
:1020E000B12C098002C0B594A7940A94E2F7F501D7
:1020F000E095F095F887EF83F601A080B12CEF8191
:10210000F885AE22BF2214C0E491C60CD71CAE2EB7
:10211000B12CF501098002C0F595E7950A94E2F724
:10212000F887EF83F601B080EF81F885EB255F013A
:10213000F601A0820F5F1F4FED81FE813196FE8375
:10214000ED83FFEF8F1A9F0A42CF2F5F3F4F420C64
:10215000531C60587F4F20CF109709F09DCFEACFD6
:1021600028960FB6F894DEBF0FBECDBFDF91CF919A
:102170001F910F91FF90EF90DF90CF90BF90AF90A5
:102180009F908F907F906F905F904F903F902F9097
:1021900008952F923F924F925F926F927F928F920B
:1021A0009F92AF92BF92CF92DF92EF92FF920F93E6
:1021B0001F93CF93DF9300D000D01F92CDB7DEB72F
:1021C000C22ED12C9C012C0D3D1D37FD64C08038E2
:1021D00091050CF060C010E09B01200F311F37FD0E
:1021E0005AC0603471050CF056C03E2D3A012B01E7
:1021F0001C01C6010796AC0193E0559547959A9549
:10220000E1F75A834983A12CB12CE12CF12CE01683
:10221000F1060CF040C01D821C824701840C951C05
:102220004C815D814C155D0574F5EC81FD8183E089
:10223000F595E7958A95E1F7EA0DFB1DE60DF71D8B
:10224000E491F0E08C819D818770992740E850E00F
:1022500002C0559547958A95E2F7E423F523EF2BC5
:1022600061F0232FA4016C817D81620D731D81E4D7
:1022700092E03B830E94E60B3B818C819D8101961D
:102280009D838C83CDCF5FEFE51AF50A89819A8112
:10229000A80EB91EBCCF0F900F900F900F900F900B
:1022A000DF91CF911F910F91FF90EF90DF90CF9032
:1022B000BF90AF909F908F907F906F905F904F9066
:1022C0003F902F900895009769F0FC010190002045
:1022D000E9F73197AF01481B590BBC0181E492E04B
:1022E0000C94C10780E090E008958F929F92AF9286
:1022F000BF920F931F93CF93DF93CDB7DEB7A19714
:102300000FB6F894DEBF0FBECDBF19A2423008F45D
:102310004AE08E010F5D1F4F842E912CA12CB12C11
:10232000A50194010E946520E62FB901CA01015060
:102330001109EA3014F4E05D01C0E95CD801EC93C6
:10234000232B242B252B61F7C8010E946311A19632
:102350000FB6F894DEBF0FBECDBFDF91CF911F91B6
:102360000F91BF90AF909F908F90089520E085E5EA
:1023700092E0B22FB111BFEFFC010024B193B193F1
:10238000B193B1930394D1F708951092390110924B
:102390003A0110923D0110923E0124E120933B014D
:1023A0008B30910514F08AE090E080933C0180E04E
:1023B00090E09C01265F3F4F223F43E0340731F01D
:1023C000FC01EB51FE4F1082C901F3CF0895EF924B
:1023D0000F9382E0809338010E94B61181E090E073
:1023E000909337018093360183E080933501EE248A
:1023F000E39400E320E647E75CE06AE070E081E117
:1024000090E00E94C91085E592E00E94FB0960ED12
:1024100077E080E090E00E944E090E94150D81E077
:1024200090E00E94C511E1E2F1E0128A118681E09C
:102430008093340188E190E09093DC018093DB018C
:102440000F91EF9008954F925F926F927F928F92CB
:102450009F92AF92BF92CF92DF92EF92FF92CF9373
:10246000DF93EC014A015B0181E08093DA012E01E8
:10247000612C712C60E072E18AE790E0A301920187
:102480000E94332069017A0181E0C81AD108E1086D
:10249000F108C114D10481E0E806F10488F068E491
:1024A00078EE81E090E0A30192010E94332069015F
:1024B0007A0181E0C81AD108E108F10883E001C07F
:1024C00081E090918100987F982B909381008114F6
:1024D0009104A104B10471F0DE01AA0FBB1FA50194
:1024E00094010E94522028EE33E040E050E00E9428
:1024F000652003C02FEF3FEFA901D0928900C09261
:1025000088002093D6013093D7014093D80150938F
:10251000D90180916F00826080936F00DF91CF912D
:10252000FF90EF90DF90CF90BF90AF909F908F90F3
:102530007F906F905F904F900895CF93DF9390912D
:10254000D501923009F46EC0C82F292F30E0F9016F
:10255000EB58F34FD491F901E959F94F80839F5F0C
:102560009093D50161E00E945508D13019F0D33025
:1025700039F158C010928000109281008091810042
:1025800088608093810080918100816080938100C8
:102590008C2F90E0FC01EA5AF34FE491F0E0EE0F4B
:1025A000FF1FE85BF34F259134913093D4012093C2
:1025B000D301FC01E75DF34F84918093D20132C0D7
:1025C0001092900010929100809191008860809309
:1025D0009100809191008160809391008C2F90E018
:1025E000FC01EA5AF34FE491F0E0EE0FFF1FE85BC5
:1025F000F34F259134913093D1012093D001FC0108
:10260000E75DF34F84918093CF018091D5018823BA
:1026100021F06CE380E00E940B0A80E0DF91CF9113
:102620000C94F60ADF91CF910895FC018091CE01C0
:10263000811103C08FEF9FEF08959FB7F89482E058
:102640008093E9002091F20030E01216130614F492
:1026500021E030E02115310559F0289884E6809377
:10266000CD018091F10080838091F200882319F0E0
:102670009FBFC90108958BE68093E800F9CFCF93FF
:10268000DF931F92CDB7DEB7FC018485958597FD5A
:1026900005C02FEF3FEF358724870BC0CE01019691
:1026A0000E941513019719F4898190E002C08FEF01
:1026B0009FEF0F90DF91CF91089580915F06811178
:1026C0000DC082E080935B0684E080935C061092EC
:1026D0005E0610925D0681E080935F068BE596E0D2
:1026E0000895FC018485958597FD0BC09FB7F894EC
:1026F00082E08093E9008091F2009FBF90E0019614
:1027000008959FB7F89482E08093E9008091F200E9
:102710009FBF90E008954091BE065091BF06209162
:10272000BC063091BD0642175307B4F49091E800FF
:102730009570E1F39091E80092FD19C08093F1004B
:102740008091BE069091BF0601968F739927892BC1
:1027500019F48EEF8093E8008091BE069091BF0639
:1027600001969093BF068093BE0681E0089580E0B5
:102770000895CF92DF92EF92FF920F931F93CF9322
:10278000DF931F92CDB7DEB7182F062FE42E862FCA
:10279000880F8E5F99830E948B1383E00E948B13B6
:1027A000F12EC12E9981D92E8C2D8F19801798F476
:1027B000F601E7FE02C0849101C080810E948B1364
:1027C000182F80E00E948B138123FFEFCF1ADF0ABE
:1027D0008111EACF01C081E00F90DF91CF911F916D
:1027E0000F91FF90EF90DF90CF900895DF92EF92DE
:1027F000FF920F931F93CF93DF93D82E8A017B0113
:10280000E40EF51EEB01CE15DF0571F0D7FE03C017
:10281000FE01849101C088810E948B132196811151
:10282000F2CF8FEF9FEF01C0C801DF91CF911F91D1
:102830000F91FF90EF90DF900895615030F020915C
:10284000F100FC0120830196F8CF289884E680935C
:10285000CD0108950F931F93CF93DF931F92CDB7B0
:10286000DEB78C01FC018485958597FF0EC0CE01F3
:1028700001960E941513019719F4298130E002C0D6
:102880002FEF3FEFF80135872487F8018485958580
:102890000F90DF91CF911F910F9108950F931F9388
:1028A000CF93DF931F92CDB7DEB782E0898342E4F6
:1028B00050E067EB7EE080E80E94F6130E945D1313
:1028C000DC0112960D911C9113970115110569F009
:1028D000D801ED91FC910280F381E02DBE016F5F84
:1028E0007F4FC801099597FF07C089810F90DF913D
:1028F000CF911F910F910895F80100851185E5CFC3
:102900001F920F920FB60F9211248F939F93809175
:10291000E1009091E100937F9093E10083FF0FC06D
:102920001092E90091E09093EB001092EC0092E39A
:102930009093ED001092CE0198E09093F00082FF0A
:1029400020C093E09093E9009091F200992319F050
:102950009AE39093E8009091CB01992339F09091FC
:10296000CB0191509093CB01992389F19091CD01A6
:10297000992339F09091CD0191509093CD019923F5
:1029800041F184FF10C08091E2008E7E81608093CF
:10299000E2008091E1008F7E8093E1008091CC0184
:1029A0008E7E806111C080FF16C08091E2008E7E15
:1029B00080618093E2008091E1008E7E8093E1004F
:1029C0008091CC018E7E81608093CC0104C05D9AA1
:1029D000CDCF289AD6CF9F918F910F900FBE0F9099
:1029E0001F9018951F920F920FB60F921124CF923D
:1029F000DF92EF92FF920F931F932F933F934F938A
:102A00005F936F937F938F939F93AF93BF93EF9356
:102A1000FF93CF93DF93CDB7DEB76C97DEBFCDBF0B
:102A20001092E9008091E80083FFEDC168E0CE01DB
:102A300045960E941D1482EF8093E8008D8987FFE0
:102A400005C09091E80090FFFCCF03C09EEF9093EB
:102A5000E800982F907609F0C6C09E892F89188DBE
:102A600091110CC0803829F48091BB068093F1004D
:102A700002C01092F1001092F10048C1422F50E0C4
:102A8000512B913051F4811141C14130510509F070
:102A90003DC18091BB068D7F0BC0933061F48111E5
:102AA00035C14130510509F031C18091BB068260CA
:102AB0008093BB062BC1953041F48091E80080FFE4
:102AC000FCCF20682093E30021C1963009F05FC05D
:102AD000EB8CFC8C1092E9001092BF061092BE069F
:102AE000123091F51092BD061092BC060E944E1451
:102AF00099E0BE016F5F7F4FDB01E92F1D92EA95E0
:102B0000E9F799831A8391E09E8390EA98879AEF78
:102B100099872091BE063091BF06275F3F4F3C83C7
:102B20002B838D831092E9001092BF061092BE068F
:102B3000F092BD06E092BC0649E050E080E00E94C1
:102B4000F6130E944E14E2C0F092BD06E092BC065D
:102B50000E945D13DC011296ED90FC901397E11436
:102B6000F10409F4C0C0D701ED91FC910480F58116
:102B7000E02DBE016B5E7F4FC7010995009719F0EC
:102B80000CF0C4C0C7C0F701E084F184E8CF9730EF
:102B900009F4C0C0983021F481E08093F100B6C000
:102BA000993009F0B3C0837009F0B4C0E8E7F1E0F0
:102BB00081E021E036E39081992361F08093E90080
:102BC0002093EB0091919093EC003093ED008F5F98
:102BD000873089F78EE78093EA001092EA008F89A8
:102BE0008093CE0193C08B8D9C8D1092E900109242
:102BF000BF061092BE069093BD068093BC06898DD9
:102C0000811156C08E899D89913A59F4813209F01B
:102C100081C047E050E069E171E080E00E94F61376
:102C200075C0913209F076C0833289F4888D90E0C6
:102C3000982F88272F89822BA0E0B0E080933F0156
:102C400090934001A0934101B09342015FC0803254
:102C500069F48091E80082FFFCCF67E089E191E0B0
:102C60000E941D148BEF8093E80006C0823209F0A9
:102C70004DC08F89809320018091BA06882319F076
:102C8000EEEFFAE002C0E0E0F8E0809119019091E7
:102C90001A01A0911B01B0911C01803B9440A10539
:102CA000B10509F07BC08091200180FF93C076C000
:102CB0000E945D13DC0112960D911C911397011572
:102CC000110541F1D801ED91FC910190F081E02DC9
:102CD000BE016B5E7F4FC8010995811117C0F801D5
:102CE00000851185ECCF113009F44EC0133091F4FA
:102CF0008F89882309F445C0823081F440E860E17F
:102D00008BE19FE00E94B913882321F08EEF80931E
:102D1000E80079C081E28093EB0075C0813029F42E
:102D200040E86BE08FE09FE0EDCF833099F70E94A1
:102D30005D13DC011296ED90FC9013978E010F5FEE
:102D40001F4F6801E114F10479F0D701ED91FC9176
:102D50000680F781E02DB801C7010995080F111D04
:102D6000F701E084F184EECFD8011C92F6010190C6
:102D70000020E9F73197BF016C197D0940E0C601D9
:102D8000C1CF69EF7EE002C06DEF7EE06115710595
:102D900009F2FB01449150E080E840CF0FB6F8946F
:102DA000A895809160008861809360001092600017
:102DB0000FBEA895EE3F2AE0F20739F08091FE0A97
:102DC0009091FF0A91838083A1CF1092FF0A109205
:102DD000FE0A9CCFEE3F8AE0F80731F080819181B6
:102DE0009093FF0A8093FE0A87E797E79183808399
:102DF0009BE088E10FB6F894A895809360000FBE21
:102E00009093600083CF6C960FB6F894DEBF0FBE30
:102E1000CDBFDF91CF91FF91EF91BF91AF919F9186
:102E20008F917F916F915F914F913F912F911F9162
:102E30000F91FF90EF90DF90CF900F900FBE0F900B
:102E40001F901895789484B5826084BD84B58160A4
:102E500084BD85B5826085BD85B5816085BD809165
:102E60006E00816080936E001092810080918100DD
:102E700082608093810080918100816080938100D5
:102E800080918000816080938000809191008260B9
:102E90008093910080919100816080939100809156
:102EA00090008160809390008091C1008460809345
:102EB000C1008091C10082608093C1008091C100F7
:102EC00081608093C1008091C30081608093C300C2
:102ED0008091C00082608093C0008091C2008160B8
:102EE0008093C20080917A00846080937A00809100
:102EF0007A00826080937A0080917A00816080936A
:102F00007A0080917A00806880937A001092CE01D6
:102F10001092BB061092CC018091D7008160809303
:102F2000D70080EA8093D80089B5806189BD89B5D2
:102F3000826089BD09B400FEFDCF61E070E080E0F1
:102F400090E00E944E098091D8008F7C8061809330
:102F5000D8008091E000807F8093E0008091E100C4
:102F60008E7E8093E1008DE08093E200559A209A56
:102F7000EEEFFFE7859194918B3F9C4D19F481E032
:102F80008093BA06CFB7F8948091A201811127C02F
:102F9000E7E6FCE08491EAE3FCE09491E82FF0E0BE
:102FA000EE0FFF1FE856FE4FA591B491EC91E92377
:102FB00021F461E081E10E94F20761E081E10E9479
:102FC00055088CB580618CBD8CB580648CBD61E08A
:102FD0008FE00E94550861E080E10E9455088091D1
:102FE000A2018F5F8093A201CFBFC3EBD1E0FE01AE
:102FF0008491229631966491882319F00E94550895
:10300000F6CF61E086E00E94F20761E070E080E0C8
:1030100090E00E944E0960E086E00E94F2076AE0BC
:1030200070E080E090E00E944E0961E086E00E943E
:10303000F207E2E6FCE0E491F0E0EE0FFF1FE85B50
:10304000F34F859194919093A8018093A701E5E3B4
:10305000FCE0E491E093A601EAE5FCE0E491F0E015
:10306000EE0FFF1FE85BF34F859194919093A501BC
:103070008093A401EDE2FCE0E491E093A3018CB520
:103080008C7F8CBD8DB581608DBDE091A701F091E5
:10309000A80190818091A601982B9083A091A40112
:1030A000B091A5012C919091A301909592239C93AE
:1030B0009081809589238083E6EAF1E021E0E33B7B
:1030C000F20749F084918EBD00000DB407FEFDCFDC
:1030D0008EB53196F3CFE091A401F091A5019081D6
:1030E0008091A301892B8083E091A701F091A80131
:1030F00090818091A60180958923808380916400CE
:103100008160809364008091640082608093640099
:103110008091640080688093640080916400806482
:1031200080936400809165008160809365000E94B7
:10313000DE0987FF1AC080E094E01EBC00000DB4D9
:1031400007FEFDCF2EB50197C1F760E070E08AE081
:103150000E94910860E070E08BE00E94910860E0BE
:1031600070E089E00E949108FFCFCEEEDFEF18E11A
:10317000CC24CA94D12C812F8C1BB601681B7109F9
:103180008AE00E9491086FEF70E08BE00E94910846
:103190006FEF70E089E00E9491080E94B611EE2462
:1031A000E39400E128E548EE50E0BE0184E190E0C0
:1031B0000E945F0F85E592E00E94FB096BE170E0E1
:1031C00080E090E00E944E09C03F31F46AEF70E069
:1031D00080E090E00E944E092196C931D10559F650
:1031E0006EEE72E080E090E00E944E096FEF70E0BA
:1031F0008AE00E9491086FEF70E08BE00E949108D6
:103200006FEF70E089E00E94910885E00E949D12B6
:103210008DE00E949D1210929E0182E090E00E943B
:103220002B20882369F080916400877F809364005D
:1032300080916500877F8093650081E08093A10184
:103240000E94F30D0E94E7110E9488096093B0016B
:103250007093B1018093B2019093B30180916400A7
:103260008E7F8093640087EC80937C0080E2809363
:103270007B0062E070E080E090E00E944E09809167
:103280007A00806480937A0080917A0086FDFCCF7A
:10329000C0917800D0917900C095D0958EE580934B
:1032A0007C0062E070E080E090E00E944E09809136
:1032B0007A00806480937A0080917A0086FDFCCF4A
:1032C00000917800109179000E9429099B01AC01BE
:1032D0002095309540955095009510950C9FD00104
:1032E0000D9FB00D1C9FB00D11240E9452206B0148
:1032F0007C010E9429096C0D7D1D8E1D9F1D61158D
:1033000071058105910511F00E94222080916400D1
:10331000816080936400A8E42A2E312C8091B8014A
:10332000882399F00E9488090091B4011091B50199
:103330002091B6013091B701061717072807390702
:1033400008F0B8C51092B801B5C50E94880900916F
:10335000B0011091B1012091B2013091B3010F5D24
:103360001F4F2F4F3F4F061717072807390708F041
:10337000A1C58091AF01811108C01092AB011092DC
:10338000AC011092AD011092AE01C0911701D09125
:103390001801D0931601C09315018091DB01909123
:1033A000DC019093AA018093A9011092AF010E94C1
:1033B000DE0987FF03C08AE590E00DC00E94DE09A8
:1033C00084FF03C08EE091E006C00E94DE0985FF05
:1033D00007C084EB90E0909314018093130108C020
:1033E0000E94DE0986FF08C010921401109213019A
:1033F000809138018093AF018091AF018823B9F0AB
:1034000020911301309114012115310541F0243B25
:10341000310569F4DE01A81BB109CD0104C0FE012C
:10342000E80FF11DCF01909318018093170180914F
:10343000DB019091DC018F9734F08EE290E0909365
:10344000DC018093DB018091DB019091DC010A9724
:1034500034F48AE090E09093DC018093DB0180916A
:103460001701909118018937910534F088E790E0B1
:103470009093180180931701809117019091180182
:1034800097FF04C010921801109217018091170144
:1034900090911801C817D90759F42091A9013091CA
:1034A000AA018091DB019091DC012817390709F10D
:1034B0006091380170E080E090E00E9440212DECA6
:1034C0003CEC4CE45EE30E94F5219B01AC01609171
:1034D000AB017091AC018091AD019091AE010E9461
:1034E00097206093AB017093AC018093AD019093F2
:1034F000AE0120E030E040E850E46091AB01709113
:10350000AC018091AD019091AE010E94F02118169E
:1035100044F41092AB011092AC011092AD011092E4
:10352000AE01809133018F5F80933301823319F4B0
:1035300010922A015AC0883C09F057C010923301FA
:103540000E941D206B017C0180E090E0A0E8BFE3B9
:1035500080932B0190932C01A0932D01B0932E0109
:1035600080E090E0A0ECBFE380932F0190933001C6
:10357000A0933101B09332010E941D202EE630E06D
:1035800040E050E00E943320665F7F4F8F4F9F4F97
:103590000E944021609321017093220180932301B6
:1035A000909324010E941D2022E230E040E050E090
:1035B0000E943320665F7F4F8F4F9F4F0E944021B4
:1035C0006093250170932601809327019093280131
:1035D000C701B60125E030E040E050E00E94332012
:1035E0006093290181E080932A0180912A01882338
:1035F00009F4E6C0C0902101D0902201E09023019F
:10360000F0902401C0911701D0911801BE01685FAC
:103610007F4F072E000C880B990B0E9440219B01C5
:10362000AC01C701B6010E94032187FFC9C020E099
:1036300030E040E051E4C701B6010E9497206B01E1
:103640007C01BE01DD0F880B990B0E9440219B017C
:10365000AC01C701B6010E94F02118160CF0B0C0F1
:10366000C0902501D0902601E0902701F09028011C
:10367000C091DB01D091DC01BE01685F7F4F072E56
:10368000000C880B990B0E9440219B01AC01C701E3
:10369000B6010E94032187FF93C020E030E040E0A4
:1036A00051E4C701B6010E9497206B017C01BE0165
:1036B000DD0F880B990B0E9440219B01AC01C701D3
:1036C000B6010E94F02118160CF07AC080912901F1
:1036D00081111BC040E550E060E070E08BE092E0BB
:1036E0000E942312809135018F5F809335011092E3
:1036F0002A0180E090E0A0E0B3E480932101909360
:103700002201A0932301B0932401809129018130EB
:10371000B1F4E3E0F1E08081843010F48F5F8083C6
:10372000319691E0E331F907B1F740E550E060E010
:1037300070E08BE092E00E94231210922A018091A7
:1037400029018230B1F4E3E0F1E08081882311F0B7
:10375000815080833196A1E0E331FA07B1F740E56B
:1037600050E060E070E083E890E00E942312109245
:103770002A0180912901833071F4109239018093DC
:103780003C0140E550E060E070E086E091E00E949E
:10379000231210922A0180912901843089F4E3E0F8
:1037A000F1E08193B1E0E331FB07D9F740E550E068
:1037B00060E070E08BE092E00E94231210922A01F8
:1037C00080913D01882341F080913E01811104C028
:1037D00081E080933E010DC0809139018F5F883C6C
:1037E00019F08093390105C01092390181E080936E
:1037F0003C010E94200D80913C0190E0E6EEF1E05A
:1038000020E030E02817390764F4408141504083BC
:10381000411103C0DF0111971C922F5F3F4F3A9671
:10382000F1CFC5EED1E0FDEDCF2EF1E0DF2E860128
:10383000A12CB12C80913C0190E0A816B9060CF0A7
:10384000C5C08881882309F4BAC0F801408051803E
:1038500062807380E0901701F0901801B701685FF3
:103860007F4F072E000C880B990B0E9440219B0173
:10387000AC01C301B2010E94032187FFA0C020E078
:1038800030E040E051E4C301B2010E9497202B01D7
:103890003C01B701FF0C880B990B0E9440219B0152
:1038A000AC01C301B2010E94F02118160CF087C0D0
:1038B000D80114964D905D906D907C901797E09094
:1038C000DB01F090DC01B701685F7F4F072E000C31
:1038D000880B990B0E9440219B01AC01C301B201EE
:1038E0000E94032187FF6BC020E030E040E051E4FC
:1038F000C301B2010E9497202B013C01B701FF0CCC
:10390000880B990B0E9440219B01AC01C301B201BD
:103910000E94F02118160CF052C040E550E060E023
:1039200070E088E891E00E94231280913A018F5F55
:1039300080933A01188290913B01891708F43FC0A7
:1039400020913601309137013093A00120939F01DF
:10395000C90163E070E00E946222892B11F482E0C9
:1039600003C0809138018F5F8093380180913801C6
:10397000809302012F5F3F4F309337012093360130
:103980000E94150D81E090E00E94C5110E94B611C1
:10399000EE24E39400E320E646E252E06AE070E0C1
:1039A00081E190E00E94C91085E592E00E94FB0948
:1039B00060ED77E080E090E00E944E0907C0BFEF25
:1039C000AB1ABB0A2A96065F1F4F34CF0E94B6116E
:1039D0000E9488096093B0017093B1018093B20195
:1039E0009093B30100E010E0C0E0D0E021E0AE0130
:1039F000B80181E492E00E94E60B2196CA30D1051D
:103A0000A9F70F5F1F4F0F37110571F7E3E0AE2ED7
:103A1000B12CC0E0D0E08091350190E0C817D90703
:103A20007CF4E12C08E028E04EE152E061E070E037
:103A3000C5010E945F0F2196EAE0AE0EB11CEBCFEC
:103A4000309256062092550681E090E090935806F9
:103A50008093570660E281E492E00E940D0C63E4DB
:103A600081E492E00E940D0C6FE481E492E00E94F8
:103A70000D0C69E481E492E00E940D0C6EE481E497
:103A800092E00E940D0C60E281E492E00E940D0C35
:103A900060913A0170E080E090E04AE00E94751188
:103AA00060E281E492E00E940D0C00E010E0C8E3C7
:103AB000D0E021E0AE01B80181E492E00E94E60B83
:103AC0002196C034D105A9F70F5F1F4F0F3711059D
:103AD00071F773E0A72E71E0B72E4501C0E0D0E08A
:103AE000D4018D914D018230D9F050F4882391F0AA
:103AF000813031F5E12C08E028E04EE052E01BC0B7
:103B00008330A1F08430E1F4E12C08E028E046EFB6
:103B100051E011C0E12C08E028E046E152E00BC082
:103B2000E12C08E028E046E052E005C0E12C08E086
:103B300028E04EEF51E068E370E0CE010E94C9102A
:103B40002896C038D10561F68091DB019091DC01A7
:103B50008E970CF49AC040E550E060E070E08EE68D
:103B600090E00E9423124091170150911801CA0160
:103B7000029697FD079663E0959587956A95E1F71C
:103B80009A012A5F3F4F37FF02C0295F3F4F43E052
:103B9000359527954A95E1F7AC01241735076CF068
:103BA000FA01ED5FFE4F6081662321F06150608372
:103BB000C0E009C04F5F5F4FF0CFFC01ED5FFE4FEB
:103BC00021E02083C1E080E090E0F50121915F01D8
:103BD000820F911DF3E1AF16F1E0BF06B1F7892B1B
:103BE00011F40E94150D8091020180933801C111DA
:103BF0000FC02EE031E0309314012093130190E0C8
:103C000091958195910990930101809300013DC0A8
:103C10008AE090E09093DC018093DB0140EA50E081
:103C200060E070E083E890E00E942312109233017C
:103C300010922A01809135018150809335018111C4
:103C40000AC068EB7BE080E090E00E944E090E9491
:103C5000F30D0E94E7110E948809DC01CB01885412
:103C6000944FAF4FBF4F8093B4019093B501A09391
:103C7000B601B093B701809138018093020181E0D1
:103C8000809338018093B80124C06091DB0170916A
:103C9000DC016B3071053CF48091380190E0909329
:103CA0000101809300018091000190910101680F52
:103CB000791F7093DC016093DB01EE24E39408E04C
:103CC00028E04EEE51E080911701909118010E947A
:103CD000C91080912A01882309F4B9C08091290173
:103CE000811121C0609125017091260180912701E9
:103CF000909128010E9408214B015C0160912101F3
:103D00007091220180912301909124010E94082149
:103D1000DC01CB01EE24E39408E028E04EE152E020
:103D2000B4010E945F0F80912901813009F56091F3
:103D300025017091260180912701909128010E9410
:103D400008214B015C016091210170912201809159
:103D50002301909124010E940821DC01CB01EE2473
:103D6000E39408E028E046EE51E0B4010E94C91057
:103D700080912901823009F5609125017091260119
:103D800080912701909128010E9408214B015C013C
:103D90006091210170912201809123019091240171
:103DA0000E940821DC01CB01EE24E39408E028E026
:103DB0004EED51E0B4010E94C91080912901833079
:103DC00009F560912501709126018091270190915C
:103DD00028010E9408214B015C0160912101709132
:103DE000220180912301909124010E940821DC018D
:103DF000CB01EE24E39408E028E046ED51E0B40165
:103E00000E94C91080912901843009F56091250133
:103E10007091260180912701909128010E9408212C
:103E20004B015C016091210170912201809123017D
:103E3000909124010E940821DC01CB01EE24E3943F
:103E400008E028E04EEC51E0B4010E94C910C0E047
:103E5000D0E080913C0190E0C817D9073CF5D6012D
:103E600018968C9118978823E1F014966D917D91A6
:103E70008D919C9117970E9408214B015C01F601DE
:103E800060817181828193810E940821DC01CB01D4
:103E9000EE24E39408E028E046EC51E0B4010E94EF
:103EA0005F0F2196FAE0CF0ED11CD3CF85E592E0CB
:103EB0000E94FB0980E090E0892B09F42FCA0E9440
:103EC000000029CA0F931F9310926C0610926B0684
:103ED00088EE93E0A0E0B0E080936D0690936E06CC
:103EE000A0936F06B09370068DE591E090936A06FB
:103EF000809369068FEF9FEF909376068093750607
:103F000010924402109243028FE691E09093420295
:103F1000809341028CE38093470280E180934A02C0
:103F2000109249021092480210924F0210925002D1
:103F300010925102109252021092530210925606A1
:103F400010925506109258061092570681E0809301
:103F500059068093B906EDEDF1E080E090E000E0D5
:103F600010E020E832E440E050E060E871E40083D3
:103F70001183228333834483558366837783DC01F3
:103F8000A352BE4F18961C92189719961C920A9627
:103F90003A968436910559F71F910F9108958F92A3
:103FA0009F92AF92BF92CF92DF92EF92FF92CF9308
:103FB000DF93EC01688179818A819B8161157105AC
:103FC0008105910521F464E279ED8BE597E02DE11F
:103FD00033EF41E050E00E94332049015A019B0138
:103FE000AC01A7EAB1E40E9452206B017C01ACEE67
:103FF000B4EFA50194010E946020DC01CB018C0D7F
:104000009D1DAE1DBF1DB7FF03C00197A109B0489C
:1040100088839983AA83BB83BC01CD019F77DF91FD
:10402000CF91FF90EF90DF90CF90BF90AF909F9097
:104030008F9008950E94CF1F089583E491E00E941D
:10404000CF1F08956093430170934401809345010D
:10405000909346010895F999FECF92BD81BDF89ADB
:10406000992780B50895052E97FB1EF400940E94B1
:104070004A2057FD07D00E94652007FC03D04EF46C
:104080000C944A2050954095309521953F4F4F4FC5
:104090005F4F089590958095709561957F4F8F4FF4
:1040A0009F4F08950E948720A59F900DB49F900D6B
:1040B000A49F800D911D11240895B7FF0C945220E8
:1040C0000E945220821B930B0895A1E21A2EAA1B74
:1040D000BB1BFD010DC0AA1FBB1FEE1FFF1FA217B8
:1040E000B307E407F50720F0A21BB30BE40BF50BB5
:1040F000661F771F881F991F1A9469F7609570953E
:10410000809590959B01AC01BD01CF010895A29FC0
:10411000B001B39FC001A39F700D811D1124911D9B
:10412000B29F700D811D1124911D08955058BB2719
:10413000AA270E94AE200C94B6210E94A82138F034
:104140000E94AF2120F039F49F3F19F426F40C941B
:10415000A5210EF4E095E7FB0C949F21E92F0E9426
:10416000C72158F3BA17620773078407950720F031
:1041700079F4A6F50C94E9210EF4E0950B2EBA2FF4
:10418000A02D0B01B90190010C01CA01A00111245D
:10419000FF27591B99F0593F50F4503E68F11A1609
:1041A000F040A22F232F342F4427585FF3CF46959A
:1041B00037952795A795F0405395C9F77EF41F16BC
:1041C000BA0B620B730B840BBAF09150A1F0FF0F86
:1041D000BB1F661F771F881FC2F70EC0BA0F621F72
:1041E000731F841F48F4879577956795B795F79562
:1041F0009E3F08F0B0CF9395880F08F09927EE0FF7
:104200009795879508950E947B2108F481E0089591
:104210000E940F216894B1110C94EA2108950E9424
:10422000CF2188F09F5798F0B92F9927B751B0F058
:10423000E1F0660F771F881F991F1AF0BA95C9F72A
:1042400014C0B13091F00E94E921B1E008950C94BE
:10425000E921672F782F8827B85F39F0B93FCCF371
:10426000869577956795B395D9F73EF490958095A7
:10427000709561957F4F8F4F9F4F0895E89409C0C7
:1042800097FB3EF490958095709561957F4F8F4F89
:104290009F4F9923A9F0F92F96E9BB279395F6959F
:1042A000879577956795B795F111F8CFFAF4BB0F1D
:1042B00011F460FF1BC06F5F7F4F8F4F9F4F16C081
:1042C000882311F096E911C0772321F09EE8872F0B
:1042D000762F05C0662371F096E8862F70E060E0C7
:1042E0002AF09A95660F771F881FDAF7880F969540
:1042F000879597F90895990F0008550FAA0BE0E8E4
:10430000FEEF16161706E807F907C0F01216130697
:10431000E407F50798F0621B730B840B950B39F4D7
:104320000A2661F0232B242B252B21F408950A263D
:1043300009F4A140A6958FEF811D811D089597F97D
:104340009F6780E870E060E008959FEF80EC08953B
:1043500000240A9416161706180609060895002464
:104360000A9412161306140605060895092E0394DE
:10437000000C11F4882352F0BB0F40F4BF2B11F452
:1043800060FF04C06F5F7F4F8F4F9F4F089557FDB1
:104390009058440F551F59F05F3F71F04795880FB3
:1043A00097FB991F61F09F3F79F08795089512164A
:1043B00013061406551FF2CF4695F1DF08C01616F6
:1043C00017061806991FF1CF8695710561050894A7
:1043D0000895E894BB2766277727CB0197F90895BE
:1043E0000E947B2108F48FEF08950E9408220C940C
:1043F000B6210E94A82138F00E94AF2120F0952319
:1044000011F00C949F210C94A52111240C94EA2105
:104410000E94C72170F3959FC1F3950F50E0551F7F
:10442000629FF001729FBB27F00DB11D639FAA2709
:10443000F00DB11DAA1F649F6627B00DA11D661F58
:10444000829F2227B00DA11D621F739FB00DA11D79
:10445000621F839FA00D611D221F749F3327A00D33
:10446000611D231F849F600D211D822F762F6A2FCF
:1044700011249F5750409AF0F1F088234AF0EE0F34
:10448000FF1FBB1F661F771F881F91505040A9F761
:104490009E3F510580F00C949F210C94EA215F3FD0
:1044A000E4F3983ED4F3869577956795B795F7959D
:1044B000E7959F5FC1F7FE2B880F911D9695879515
:1044C00097F9089597FB072E16F4009407D077FD0F
:1044D00009D00E947C2207FC05D03EF4909581957E
:1044E0009F4F0895709561957F4F0895EE0FFF1FC0
:1044F0000590F491E02D0994AA1BBB1B51E107C064
:10450000AA1FBB1FA617B70710F0A61BB70B881F63
:10451000991F5A95A9F780959095BC01CD010895F2
:0E45200081E090E0F8940C949522F894FFCF7F
:10452E00010002010203040304030201020102035B
:10453E000304030E011400140000E100000000004B
:10454E0000000000430000004200000000000000D8
:10455E000000000001030100020000140A0000FF29
:10456E00FFFFFF0100000001020304030403020128
:10457E0002010203030403010000000000B50EDA7D
:10458E000ED60ECB0E71133F132A14000000000D31
:10459E000CC107ED07EC0700C180810000004A55F1
:1045AE004D5020424F5900207265636F72643A205D
:0E45BE000050726573732041206F722042001E
:00000001FF
