:100000000C9497070C94BF070C94BF070C94BF0780
:100010000C94BF070C94BF070C94BF070C94BF0748
:100020000C94BF070C94BF070C94A9140C941B15D7
:100030000C94BF070C94BF070C94BF070C94BF0728
:100040000C94BF070C94810A0C94BF070C94BF0753
:100050000C94BF070C94BF070C94BF070C94940931
:100060000C94BF070C94BF070C94BF070C94BF07F8
:100070000C94BF070C94BF070C94BF070C94BF07E8
:100080000C941F0B0C94BF070C94BF070C94BF0774
:100090000C94BF070C94BF070C94BF070C94BF07C8
:1000A0000C94BF070C94BF070C94BF071D082008D1
:1000B0000F081308170841084108410824082808B8
:1000C0002C083208360841083C08B808BD08C208A8
:1000D000CC08D608200920092009E008EA08F4081D
:1000E000FE080B0920091309F0F89C8E8783878E80
:1000F0009CF8F00000FEFF0303030303070EFCF867
:100100000000FEFF0303030303070EFCF80000FFDB
:10011000FF00000000000000FFFF0000FEFF8383DF
:10012000838383C7EE7C380000F8FC0E07030303CB
:10013000070EFCF800003F7FE0C08080C0E07F3FFA
:10014000FFFF01010101010101FFFF0000FFFF0CA2
:100150000C0C0C1C3E77E3C100007FFFC0C0C0C088
:10016000C0E0703F1F00001F3F70E0C0C0C0E070E3
:100170003F1F00007FFFC1C1C1C1C1E3773E1C002A
:10018000001F3F70E0C0C0C0E0703F1F00000000D3
:100190000001FFFF01000000000000002400270014
:1001A0002A002D003000D5F08D14A1C881CFD9F1DF
:1001B000AF20001402130212021502070208020403
:1001C000010C010601001824424A52422418FF8102
:1001D000A995A99581FF7E81A599A581817EFF8141
:1001E00081BD818181FFFF8189BD898981FF7E81F8
:1001F000A5817E3C2466FF81FF81FF81FF81FF8115
:10020000FF81FF81FFFFFF81FF81FFFFFFFFFF8174
:10021000FFFFFFFFFFFFFFFFFFFFFFFFFFFF1E3F8F
:100220007EFCFC7E3F1E000000000000000000007D
:1002300000000000000000000000000000000000BE
:1002400000000000000000000000000000000000AE
:10025000000000000000000007C1003FE0300FF088
:10026000000000001FE1003FC0700C78000000009B
:1002700038310020007808180000000030310020DC
:100280000058080C000000006001002000C8080CA5
:10029000000000006001002000CC081800000000F1
:1002A0006001003F818C0C78000000006001003F7D
:1002B000C1860FE000000000600100200106083048
:1002C000000000006001002003FE08100000000094
:1002D0006011002003FF08180000000030310020EA
:1002E0000203081800000000383100200601080C45
:1002F000000000001FE1FF3FC601880C0000000065
:1003000007C1FF3FE4018804000000000000000076
:1003100000000000000000000000000000000000DD
:1003200000000000000000000000000000000000CD
:1003300000000000000000000000000000000000BD
:1003400000000000000000000000000000000000AD
:10035000000000000000003FFC0000000000000062
:100360007E000061E70000000000000076000087CA
:100370003DC0000000000000F000011C0240000031
:100380000000000090000320022000000000000098
:10039000880006618110000000000000CFE004C367
:1003A0008190000000000000FF70048E00980000A3
:1003B000000000007E300C9E00C80000000000001D
:1003C00003100990004800000000000001300910EF
:1003D0000048F0000000000000B009180048980034
:1003E000000000000CE00518004888000000000034
:1003F0000FC0059800480E000000000003000488AC
:1004000000580B0000000000000004C400D11900D7
:10041000000000000000066001B1F30000000000D1
:10042000000002200360E2800000000000000330B2
:1004300002C020800000000000000190018043C045
:100440000000000000003EFE0FFC424000000000E3
:100450000001E3A3F807E0800000000000010000B5
:100460000000818000000000000F0000000000007C
:10047000000000000001F9F0000000000000000092
:10048000000007001C000000000000000000000841
:100490003FE20000000000000000000010C0390032
:1004A00000000000000000000021823C80060000E7
:1004B000000000000000410624C009000000000008
:1004C000000000811F064010800000C000000001F5
:1004D000813E02401080000120000000010338032B
:1004E000200900000210000000010238012006006F
:1004F0000002100000000102700130000000012025
:10050000000000010270019000000000C000000027
:100510000102700090000000000000000001027065
:1005200000500000000000000000010278005000B0
:10053000000000000000000103080050000000005F
:1005400000000000008100005000000000000000DA
:100550000000808000D0000000000000000000804B
:10056000C0009000000000000000000040400310A8
:10057000000000000000000000403FFE10000000EE
:10058000000000000000400000103E1FC3FF3F803D
:1005900000000060000020000000000000000000DB
:1005A0007C000070000000000000000001A3F3F0D8
:1005B000D0000003FF0000000001201E001000001A
:1005C0000000000000000F0000003F0000000000DD
:1005D00000000008C00001C1C00003FF00000000CF
:1005E00018700380003000000000000000680FFE5B
:1005F0000000180000000000000046000000000C91
:1006000000000000000000C38000000006000000A1
:1006100000000000B0FFC000000200000000000069
:10062000009C000000000200000000000000878F16
:10063000F800000200000000000000000000003E82
:100640005B4F5B3E3E6B4F6B3E1C3E7C3E1C183C42
:100650007E3C181C577D571C1C5E7F5E1C00183C9E
:100660001800FFE7C3E7FF0018241800FFE7DBE7E7
:10067000FF30483A060E2629792926407F050507CE
:10068000407F05253F5A3CE73C5A7F3E1C1C08082A
:100690001C1C3E7F14227F22145F5F005F5F0609EF
:1006A0007F017F006689956A606060606094A2FF48
:1006B000A29408047E040810207E201008082A1C3A
:1006C00008081C2A08081E101010100C1E0C1E0C06
:1006D00030383E3830060E3E0E06000000000000A6
:1006E000005F00000007000700147F147F14242A15
:1006F0007F2A1223130864623649562050000807E7
:100700000300001C2241000041221C002A1C7F1C07
:100710002A08083E08080080703000080808080809
:10072000000060600020100804023E5149453E0070
:10073000427F400072494949462141494D331814CE
:10074000127F1027454545393C4A4949314121111D
:1007500009073649494936464949291E000014000F
:100760000000403400000008142241141414141432
:10077000004122140802015909063E415D594E7C90
:100780001211127C7F494949363E414141227F4145
:1007900041413E7F494949417F090909013E4141A3
:1007A00051737F0808087F00417F41002040413F8E
:1007B000017F081422417F404040407F021C027F9D
:1007C0007F0408107F3E4141413E7F090909063EF2
:1007D0004151215E7F0919294626494949320301C1
:1007E0007F01033F4040403F1F2040201F3F4038D3
:1007F000403F631408146303047804036159494DAE
:1008000043007F4141410204081020004141417FE3
:100810000402010204404040404000030708002059
:10082000545478407F284444383844444428384459
:1008300044287F385454541800087E090218A4A490
:100840009C787F0804047800447D40002040403DAF
:10085000007F1028440000417F40007C0478047829
:100860007C080404783844444438FC1824241818BC
:10087000242418FC7C080404084854545424040418
:100880003F44243C4040207C1C2040201C3C403005
:10089000403C44281028444C9090907C4464544C34
:1008A000440008364100000077000000413608008F
:1008B00002010204023C2623263C1EA1A161123A39
:1008C0004040207A38545455592155557941215486
:1008D000547841215554784020545579400C1E528B
:1008E000721239555555593954545459395554542F
:1008F000580000457C410002457D420001457C4096
:10090000F0292429F0F0282528F07C5455450020B2
:1009100054547C547C0A097F49324949493232484F
:10092000484832324A4848303A4141217A3A4240B6
:100930002078009DA0A07D39444444393D4040408A
:100940003D3C24FF2424487E4943662B2FFC2F2B5B
:10095000FF0929F620C0887E0903205454794100FC
:1009600000447D413048484A32384040227A007A7B
:100970000A0A727D0D19317D2629292F2826292959
:10098000292630484D40203808080808080808087B
:10099000382F10C8ACBA2F102834FA00007B0000A2
:1009A00008142A142222142A14089500220095AA59
:1009B000005500AAAA55AA55AA000000FF00101071
:1009C00010FF00141414FF001010FF00FF1010F0AF
:1009D00010F0141414FC001414F700FF0000FF00C2
:1009E000FF1414F404FC141417101F10101F101F10
:1009F0001414141F00101010F0000000001F10103D
:100A000010101F10101010F010000000FF10101038
:100A1000101010101010FF10000000FF140000FF55
:100A200000FF00001F10170000FC04F4141417103E
:100A3000171414F404F40000FF00F7141414141431
:100A40001414F700F7141414171410101F101F14A7
:100A50001414F4141010F010F000001F101F000008
:100A6000001F14000000FC140000F010F01010FF34
:100A700010FF141414FF141010101F00000000F0D9
:100A800010FFFFFFFFFFF0F0F0F0F0FFFFFF0000AE
:100A9000000000FFFF0F0F0F0F0F38444438447C55
:100AA0002A2A3E147E02020606027E027E02635558
:100AB0004941633844443C04407E201E2006027EA7
:100AC000020299A5E7A5991C2A492A1C4C720172B9
:100AD0004C304A4D4D303048784830BC625A463D23
:100AE0003E494949007E0101017E2A2A2A2A2A44D8
:100AF000445F444440514A444040444A514000000D
:100B0000FF0103E080FF000008086B6B0836123617
:100B10002436060F090F06000018180000001010F8
:100B2000003040FF0101001F01011E00191D1712B6
:100B3000003C3C3C3C000000000006011501260181
:100B400037014A015D01720188019F01B801D2019C
:100B5000EE010B022A024B026E029302BA02E40279
:100B600010033F037003A403DC0317045504970428
:100B7000DD0427057505C80520067D06E006490742
:100B8000B8072D08A9082D09B9094D0AEA0A900BE2
:100B9000400CFA0CC00D910E6F0F5A1053115B12DE
:100BA00072139A14D41520178018F519801B231D71
:100BB000DE1EB420A622B524E4263429A72B402E1D
:100BC0000031EA330037453ABC3D68414C456B493A
:100BD000C84D68524F57805C0062101112131516F1
:100BE00017181A1C1D1F21232527292C2E313437B5
:100BF0003A3E4145494E52575C62686E757B838B25
:100C0000939CA5AFB9C4D0DCE9F70000000200094D
:100C10000F0000030401000C0000000000000000B1
:100C200000000000000000000004080201104080E5
:100C300040102040804080080204018040201002C3
:100C400001108010204040200000000025002800F6
:100C50002B002E00310004040404040304050202E6
:100C60000202040302020202060606060606040445
:100C70000202020404030100000000000000000062
:100C80000000000000000000000000000000000064
:100C90000000000000000000000000000000000054
:100CA0000000000000000000000000000000000044
:100CB0000000000000000000000000000000000034
:100CC0000000000000000000000000000000000024
:100CD0000000000000000000000000000000000014
:100CE0000000000000000000000000000000000004
:100CF00000000000000000000000000000000000F4
:100D00000000000000000000007E0FFF0600FF83CF
:100D1000FFC0000000FF0FFF0F00FFE3FFC0000057
:100D2000018380600F00C0601800000001818060B6
:100D30000F00C06018000000030080601B80C030FE
:100D400018000000038000601980C06018000000D7
:100D5000018000603980C0601800000001E0006080
:100D600030C0C0E01800000000FE006030C0FFC0CE
:100D700018000000001F806070C0FF801800000095
:100D8000000380606060C1C0180000000000C06007
:100D90007FE0C0C0180000000000C060FFF0C0602D
:100DA000180000000300C060C030C06018000000E0
:100DB0000380C060C030C0601800000001C18061C5
:100DC0008018C0301800000000FF80618018C0301B
:100DD00018000000007E00618018C030180000007C
:100DE0000000000000000000000000000000000003
:100DF00000000000000000000000000000000000F3
:100E000000000000000000000000000000000000E2
:100E100000000000000000000000000000000000D2
:100E200000000000000000000000000000000000C2
:100E300000000000000000000000000000000000B2
:100E400000000000000000000000000000000000A2
:100E50000000000000000000000000000000000092
:100E60000000000000000000000000000000000082
:100E70000000000000000000000000000000000072
:100E80000000000000000000000000000000000062
:100E90000000000000000000000000000000000052
:100EA0000000000000000000000000000000000042
:100EB00000000000000000080B000202020100090F
:100EC00004000001020200000524001001052401B5
:100ED0000101042402060524060001070581031010
:100EE000004009040100020A000000070502024058
:100EF00000000705830240000004030904120100FA
:100F000002EF02014041233680000101020301414A
:100F1000726475696E6F204C4C4300417264756950
:100F20006E6F204C656F6E6172646F00761F1124C6
:100F30001FBECFEFDAE0DEBFCDBF11E0A0E0B1E031
:100F4000EEE6F5E402C005900D92A43AB107D9F798
:100F500026E0A4EAB1E001C01D92A63CB207E1F789
:100F600017E0C7E9D7E004C02197FE010E9496224E
:100F7000C639D107C9F70E944B170C94B5220C94BF
:100F80000000CF92DF92EF92FF920F931F93CF93C7
:100F9000DF936C017A018B01C0E0D0E0CE15DF0554
:100FA00089F0D8016D918D01D601ED91FC910190F0
:100FB000F081E02DC6010995892B11F47E0102C054
:100FC0002196ECCFC701DF91CF911F910F91FF9038
:100FD000EF90DF90CF900895089580E090E008951D
:100FE0000E94B022362F90E0FC01E65FF34F44915F
:100FF000FC01E75DF34F2491FC01EA5AF34F849121
:10100000882309F451C04423E1F150E0FA013197FB
:10101000EF30F105B0F5EA5AFF4F0C94962290910B
:1010200080009F7707C0909180009F7D03C09091C2
:101030008000977F9093800024C094B59F7702C072
:1010400094B59F7D94BD1DC0909190009F7707C07F
:10105000909190009F7D03C090919000977F909316
:1010600090000FC09091C0009F7703C09091C00086
:101070009F7D9093C00005C09091C200977F909390
:10108000C200E82FF0E0EE0FFF1FE85BF34FA591E1
:10109000B4918FB7F894EC91311103C020952E23B1
:1010A00001C02E2B2C938FBF0895CF93DF9390E038
:1010B000FC01E75DF34F2491FC01EA5AF34F849160
:1010C000882361F190E0880F991FFC01E856FE4FDC
:1010D000C591D491FC01E85BF34FA591B4916111E6
:1010E00009C09FB7F8948881209582238883EC916A
:1010F0002E230BC0623061F49FB7F8943881822FA1
:10110000809583238883EC912E2B2C939FBF06C060
:101110008FB7F894E8812E2B28838FBFDF91CF9172
:1011200008951F93CF93DF93182FEB0161E00E9486
:101130005508209711F460E004C0CF3FD10539F481
:1011400061E0812FDF91CF911F910C94F207E12F85
:10115000F0E0E65FF34FE4914E2F50E0FA01319753
:10116000EF30F10508F06CC0EB59FF4F0C9496225C
:1011700084B5806884BDC7BD68C084B5806284BD05
:10118000C8BD63C080918000806880938000D09348
:101190008900C093880059C080918000806280934C
:1011A0008000D0938B00C0938A004FC08091800054
:1011B000886080938000D0938D00C0938C0045C0E0
:1011C00080919000806880939000D0939900C093A4
:1011D00098003BC080919000806280939000D093F3
:1011E0009B00C0939A0031C08091900088608093EA
:1011F0009000D0939D00C0939C0027C08091C000B8
:1012000080688093C0008091C0008F7B8093C00075
:10121000C093CF001AC08091C00080628093C0004C
:10122000C093D00012C08091C20088608093C20039
:101230008091C2008B7F8093C200C093D20005C012
:10124000C038D1050CF07CCF76CFDF91CF911F91C4
:1012500008953FB7F8948091CD019091CE01A0916F
:10126000CF01B091D00126B5A89B05C02F3F19F042
:101270000196A11DB11D3FBFBA2FA92F982F882716
:10128000820F911DA11DB11DBC01CD0142E0660F71
:10129000771F881F991F4A95D1F708958F929F92C3
:1012A000AF92BF92CF92DF92EF92FF926B017C01DF
:1012B0000E9429094B015C01C114D104E104F1042D
:1012C000F1F00E942909DC01CB0188199909AA09CA
:1012D000BB09883E9340A105B10570F321E0C21A15
:1012E000D108E108F10888EE880E83E0981EA11C61
:1012F000B11CC114D104E104F10419F7DDCFFF9052
:10130000EF90DF90CF90BF90AF909F908F90089517
:101310002FB7F8946091C9017091CA018091CB01F7
:101320009091CC012FBF08951F920F920FB60F928C
:1013300011242F933F938F939F93AF93BF938091EB
:10134000C9019091CA01A091CB01B091CC0130911B
:10135000C80123E0230F2D3720F40196A11DB11DF4
:1013600005C026E8230F0296A11DB11D2093C801D8
:101370008093C9019093CA01A093CB01B093CC0193
:101380008091CD019091CE01A091CF01B091D0017B
:101390000196A11DB11D8093CD019093CE01A09324
:1013A000CF01B093D001BF91AF919F918F913F91A9
:1013B0002F910F900FBE0F901F9018958FB12CB1E9
:1013C00093B130E02095309520743327A90123E0B4
:1013D000559547952A95E1F7292F30E020953095CE
:1013E000207133273595279535952795242B8095A2
:1013F000807F822B0895FC0121912EBD9C5F21915D
:101400000DB407FEFDCF2EBDE817F907C1F70DB4E7
:1014100007FEFDCF0895CF92DF92EF92FF920F93D8
:101420001F93CF93E82FF0E0EB58F34FC491E62FD2
:10143000F0E0603330F4E652F44FE4910E2F10E008
:1014400006C0EE0FFF1FE652F54F0591149168019B
:10145000E12CF12C60E074E284EF90E0A7019601AA
:101460000E944720BA01A90141505109610971093F
:101470004115510581E06807710580F060E970ED64
:1014800083E090E0A70196010E944720BA01A901DC
:10149000415051096109710983E001C081E0C13007
:1014A000C9F0C33031F590919100987F892B8093DA
:1014B000910050939900409398001093C7010093B6
:1014C000C60181E08093C5018091710082608093A4
:1014D00071000FC090918100987F892B80938100CB
:1014E000509389004093880080916F0082608093C0
:1014F0006F00CF911F910F91FF90EF90DF90CF90F1
:1015000008951F920F920FB60F9211242F933F93BD
:101510008F939F93AF93BF93EF93FF938091E001DD
:10152000882309F44DC08091DC019091DD01A091E8
:10153000DE01B091DF01892B8A2B8B2B51F1809139
:10154000D801E091D901F091DA0190818927808357
:101550008091DC019091DD01A091DE01B091DF016D
:10156000181619061A061B06A4F58091DC01909145
:10157000DD01A091DE01B091DF010197A109B10960
:101580008093DC019093DD01A093DE01B093DF0135
:1015900020C01092E00180916F008D7F80936F00DA
:1015A0009091D801E091D901F091DA018081282F42
:1015B00030E0892F90E0809590958223932308C096
:1015C0008091D801E091D901F091DA0190818927C9
:1015D0008083FF91EF91BF91AF919F918F913F9148
:1015E0002F910F900FBE0F901F901895E82FF0E0ED
:1015F000EB58F34FE491E13019F0E33069F00895CE
:1016000080916F008D7F80936F009091D801E09161
:10161000D901F091DA0108C01092C5019091D5016D
:10162000E091D601F091D7018081282F30E0892FF9
:1016300090E08095909582239323808308951F9254
:101640000F920FB60F9211242F933F934F935F93F6
:101650006F937F938F939F93AF93BF93EF93FF937A
:101660008091C501882349F08091D501E091D60190
:10167000F091D7019081892780838091A4018823EC
:1016800009F493C08091C1019091C201A091C3015E
:10169000B091C401892B8A2B8B2B09F486C08091D1
:1016A000C1019091C201A091C301B091C401019701
:1016B000A109B1098093C1019093C201A093C30114
:1016C000B093C401892B8A2B8B2B09F06EC0E0915B
:1016D000BF01F091C001BF016F5F7F4F7093C001E8
:1016E0006093BF014491942F907F842F8F70903826
:1016F00019F40E94F60AEBCF903981F43296F093F8
:10170000C001E093BF01FB0164919091DB01891757
:10171000F0F667FDDCCF0E940B0AD9CF903E29F48A
:101720001092C0011092BF01D2CF903F19F41092D5
:10173000A4013BC097FDCBCF3296F093C001E0935C
:10174000BF01FB01249130E0342BA091C601B09180
:10175000C7010E949B206C507E4F8F4F9F4F28EEF9
:1017600033E040E050E00E9479202093C1013093A3
:10177000C2014093C3015093C4018091C101909173
:10178000C201A091C301B091C401892B8A2B8B2B7C
:1017900061F481E090E0A0E0B0E08093C10190931B
:1017A000C201A093C301B093C401FF91EF91BF9117
:1017B000AF919F918F917F916F915F914F913F91E9
:1017C0002F910F900FBE0F901F90189560387105E4
:1017D00018F54034510500F5A42FA695A695A695B9
:1017E000B0E047705527B695BA2FAA27B795A795A9
:1017F0006A0F7B1FFC01E60FF71F81E090E001C03C
:10180000880F4A95EAF7222319F09489892B03C09F
:10181000809594898923848B08952F923F924F92CB
:101820005F926F927F928F929F92AF92BF92CF9270
:10183000DF92EF92FF920F931F93CF93DF93CDB779
:10184000DEB72A970FB6F894DEBF0FBECDBF6A3061
:1018500091F4FC01E85EFB4F408132972081318199
:1018600058E0459F200D311D11243183208332978C
:1018700011821082C1C06D3009F4BEC09A87898779
:10188000885E9B4F9C838B83DC012C90E985FA85D5
:10189000EA5EFB4F60807180E985FA85EC5EFB4F64
:1018A000FA83E9830081118100381105D4F0AB81FE
:1018B000BC812C91422F50E0E981FA818081918195
:1018C000F6E02F9F800D911D1124A981BA818D937F
:1018D0009C93E985FA85E75EFB4F208121115EC06C
:1018E0008BC0B0E46B16710414F7C801E5E02E9EBE
:1018F000800D911D112418161906CCF6422C512C7E
:10190000C301F8E02F9E800D911D112418161906B1
:1019100074F655E0659F900111243F832E83E12CDE
:10192000F12C85E0E816F10441F0EE81FF81EE0D27
:10193000FF1DE65CF94F349001C0312C630138E0A3
:10194000932D91709D834801882D801B8215B0F4E2
:1019500056018A2D8C19821568F42D81A501B401D8
:1019600089859A8538870E94E60BAFEFAA1ABA0AD2
:101970003885EFCFBFEF8B1A9B0AE6CF36943150F4
:10198000C40CD51C3111DCCFEFEFEE1AFE0A040DAA
:10199000151DF6E0EF16F10421F689CF6AEF640316
:1019A0009001659F300D112420583F4F28173907AB
:1019B0001CF5A985BA85ED91FC9111970190F081F4
:1019C000E02D6AE0CD012A960FB6F894DEBF0FBE77
:1019D000CDBFDF91CF911F910F91FF90EF90DF90DE
:1019E000CF90BF90AF909F908F907F906F905F90BF
:1019F0004F903F902F9009942A960FB6F894DEBF2F
:101A00000FBECDBFDF91CF911F910F91FF90EF904F
:101A1000DF90CF90BF90AF909F908F907F906F900E
:101A20005F904F903F902F900895EDE4F1E0A3E098
:101A3000B1E081918D9381E0ED35F807D1F70895FC
:101A4000CF92DF92EF92FF92CF93DF931092260115
:101A50001092250110921C01C7E2D1E085E0C82E4A
:101A6000D12CE12CF12C0E943120A70196010E947B
:101A700047203881FB01ED5EFE4F84898993348BCA
:101A800081E0CC32D80779F7DF91CF91FF90EF90CA
:101A9000DF90CF9008952F923F924F925F926F9276
:101AA0007F928F929F92AF92BF92CF92DF92EF92EE
:101AB000FF920F931F93CF93DF9300D000D000D0FD
:101AC000CDB7DEB783EEE82E81E0F82E9AE0C92E7E
:101AD000D12C212C312C22E2422E512C612C712C44
:101AE000812C912C30E2A32E32E4B32E809142015E
:101AF00090E0281639060CF088C0C6018D519E4F23
:101B00009A83898302979C838B83FC018081811156
:101B100044C080914301882381F0B6010D2C000C54
:101B2000880B990B0E945421F70160837183828393
:101B3000938384829582A682B7820E9431202EE60A
:101B400030E040E050E00E9447208B01065F1F4FCD
:101B50000E943120A30192010E944720AB01465F01
:101B60005F4F80913001909131019C012F503109DC
:101B700002171307E4F0479680179107C4F080918D
:101B8000E1019091E2019C012F5031094217530766
:101B900074F047968417950754F0FFEF2F1A3F0A09
:101BA0008AE0E80EF11C9AE0C90ED11C9FCFB80163
:101BB000110F880B990B4D835E830E945421F7010E
:101BC00060837183828393834D815E81BA01550F57
:101BD000880B990B0E945421F701648375838683D7
:101BE00097830E94312009811A810150110920E553
:101BF00030E040E050E00E944720685DF8016083DB
:101C000081E0EB81FC818083C8CF26960FB6F894E3
:101C1000DEBF0FBECDBFDF91CF911F910F91FF901F
:101C2000EF90DF90CF90BF90AF909F908F907F907C
:101C30006F905F904F903F902F9008952F923F921A
:101C40004F925F926F927F928F929F92AF92BF92CC
:101C5000CF92DF92EF920F931F93CF93DF93C0E069
:101C6000D0E082E3A82EB12C9EE1C92ED12C2CE22B
:101C7000822E912C36E3632E712C6EE170E080E0B1
:101C800090E00E944E090E94E11184E290E090935E
:101C90005C0680935B0681E090E090935E06809303
:101CA0005D0684E891E00E948E11EE24E39404E244
:101CB00028E646E654E06CE070E08EE090E00E949A
:101CC000F410CE010196B5010E9482228C01EC0134
:101CD0008091A5019091A601181619069CF5D09245
:101CE0005C06C0925B0690925E0680925D068DE86F
:101CF00091E00E948E112090A5013090A601032C46
:101D0000000C4408550857FE14C0E0914702F091BA
:101D100048020190F081E02D6DE287E492E00995A0
:101D200066277727CB0162197309840995094AE070
:101D300003C04AE0C201B1010E94A01185E991E00F
:101D40000E948E110931110564F4D0925C06C09294
:101D50005B0670925E0660925D0687E991E00E94E4
:101D60008E118BE592E00E94FB090E94DE0983FD43
:101D700004C00E94DE0982FF80CFDF91CF911F91C6
:101D80000F91EF90DF90CF90BF90AF909F908F908A
:101D90007F906F905F904F903F902F9008952FB756
:101DA000F89483E08093E9009091E800892F807295
:101DB00095FF04C09091F20080E4891B2FBF089525
:101DC000CF93DF931F92CDB7DEB76983DC01ED912E
:101DD000FC910280F381E02D41E050E0BE016F5F95
:101DE0007F4F09950F90DF91CF91089583E0809305
:101DF000E9008091F200882319F08AE38093E800DB
:101E000008950E94CF0E90E008958F929F92AF9216
:101E1000BF92CF92DF92EF92FF920F931F93CF93D7
:101E2000DF935C016B017A0180913901882309F409
:101E30005BC08091D401882309F456C08091D201FF
:101E400080FF05C08091E00082608093E000E701A0
:101E500010E00AEF83E0882E9AE3992E2097D9F1BB
:101E60000E94CF0E81110AC0015009F43DC061E00B
:101E700070E080E090E00E944E09F0CF282F30E023
:101E8000C217D3070CF48C2F4FB7F8948092E90057
:101E90009091E80095FF1DC0282F30E0C21BD30BA6
:101EA000F601982F915020F081918093F100FACFA4
:101EB000C20ED31E112319F09092E80009C0809140
:101EC000E80085FD06C09092E80011E0209709F037
:101ED00010E04FBFC3CF1111C3CF5D9884E680934C
:101EE000D1011E141F0444F081E090E0F5019383BA
:101EF000828380E090E001C0C701DF91CF911F9104
:101F00000F91FF90EF90DF90CF90BF90AF909F9098
:101F10008F9008952F923F924F925F926F927F928F
:101F20008F929F92AF92BF92CF92DF92EF92FF92E9
:101F30000F931F93CF93DF93CDB7DEB728970FB6DC
:101F4000F894DEBF0FBECDBF222E312C9C01220D96
:101F5000331D37FD30C1803891050CF02CC19B0139
:101F6000200F311D37FD27C1603471050CF023C1EE
:101F7000DB0177FF04C0AA27BB27A61BB70BA770FE
:101F8000BB279B0177FF02C0295F3F4F13E03595C8
:101F900027951A95E1F777FF08C02150310968E0CD
:101FA00070E05B01AA1ABB0AD501E02FE695E69521
:101FB000E695CE2ED12C077019F00FEFC01AD00A7B
:101FC000B9017695762F662777956795680F791F03
:101FD0005601A20EB31EBC82AB82412C512CF8E0FC
:101FE000CF2ED12C86010A1B1B0B1A830983AB80D1
:101FF000BC802A153B0509F4DEC02830310509F400
:10200000DAC02F3F1FEF31070CF4CAC03B01E0E8F4
:102010006E0E711C8B0105521D4F1E830D834C01EA
:1020200000E010E0021513050CF0BAC0E0E88E16CF
:10203000910409F4B5C097FCA8C02F3FFFEF3F07FC
:1020400009F4B5C0F801E40DF51DCD80DE80C61899
:10205000D708AA24A394E40FF51FEA1013C0E49153
:10206000C60ED71EF0E05F010A2E02C0AA0CBB1CF0
:102070000A94E2F7B886AF82F601B080EF81F88566
:10208000EB292BC0E11017C0E491C60ED71EF0E07B
:102090000A2E02C0EE0FFF1F0A94E2F75F01A09420
:1020A000B094B886AF82F601A080B12CEF81F8859C
:1020B000AE22BF2213C0E491C60ED71EF0E05F012E
:1020C0000A2E02C0AA0CBB1C0A94E2F7B886AF82A3
:1020D000F601B080EF81F885EB255F01F601A08263
:1020E000109709F452C02730310509F44EC0F801A9
:1020F000E40DF51DAA24A394EA1011C0E40FF51F06
:10210000E491CE2ED12C5601098002C0B594A7943B
:102110000A94E2F7ED81FE81D080AD2835C0CD80F4
:10212000DE80C618D708E40FF51FE11018C0E4914F
:10213000C60CD71CAE2EB12C098002C0B594A79452
:102140000A94E2F7F501E095F095F887EF83F60140
:10215000A080B12CEF81F885AE22BF2214C0E4919B
:10216000C60CD71CAE2EB12CF501098002C0F59526
:10217000E7950A94E2F7F887EF83F601B080EF81E4
:10218000F885EB255F01F601A0820F5F1F4FED81FF
:10219000FE813196FE83ED83FFEF8F1A9F0A42CFB7
:1021A0002F5F3F4F420C531C60587F4F20CF10973A
:1021B00009F09DCFEACF28960FB6F894DEBF0FBE88
:1021C000CDBFDF91CF911F910F91FF90EF90DF90E6
:1021D000CF90BF90AF909F908F907F906F905F90C7
:1021E0004F903F902F9008952F923F924F925F9281
:1021F0006F927F928F929F92AF92BF92CF92DF9217
:10220000EF92FF920F931F93CF93DF9300D000D0F4
:102210001F92CDB7DEB7C22ED12C9C012C0D3D1DD7
:1022200037FD64C0803891050CF060C010E09B0160
:10223000200F311F37FD5AC0603471050CF056C0B5
:102240003E2D3A012B011C01C6010796AC0193E01B
:10225000559547959A95E1F75A834983A12CB12C5E
:10226000E12CF12CE016F1060CF040C01D821C821E
:102270004701840C951C4C815D814C155D0574F5FE
:10228000EC81FD8183E0F595E7958A95E1F7EA0D0C
:10229000FB1DE60DF71DE491F0E08C819D818770B8
:1022A000992740E850E002C0559547958A95E2F796
:1022B000E423F523EF2B61F0232FA4016C817D81B2
:1022C000620D731D87E492E03B830E94E60B3B8125
:1022D0008C819D8101969D838C83CDCF5FEFE51A24
:1022E000F50A89819A81A80EB91EBCCF0F900F9074
:1022F0000F900F900F90DF91CF911F910F91FF9052
:10230000EF90DF90CF90BF90AF909F908F907F9095
:102310006F905F904F903F902F900895009769F0D5
:10232000FC0101900020E9F73197AF01481B590BE0
:10233000BC0187E492E00C94C10780E090E008952E
:102340008F929F92AF92BF920F931F93CF93DF9381
:10235000CDB7DEB7A1970FB6F894DEBF0FBECDBFE5
:1023600019A2423008F44AE08E010F5D1F4F842EFF
:10237000912CA12CB12CA50194010E947920E62F6B
:10238000B901CA0101501109EA3014F4E05D01C03D
:10239000E95CD801EC93232B242B252B61F7C80192
:1023A0000E948E11A1960FB6F894DEBF0FBECDBF6E
:1023B000DF91CF911F910F91BF90AF909F908F9021
:1023C000089520E08BE592E0B22FB111BFEFFC0140
:1023D0000024B193B193B193B1930394D1F70895CD
:1023E00010923F011092400110924301109244015B
:1023F00024E1209341018B30910514F08AE090E0B4
:102400008093420180E090E09C01265F3F4F223F95
:1024100043E0340731F0FC01E551FE4F1082C90161
:10242000F3CF0895EF920F9382E080933E010E94D4
:10243000E11181E090E090933D0180933C0183E0C5
:1024400080933B01EE24E39400E320E647E75CE061
:102450006AE070E081E190E00E94F4108BE592E088
:102460000E94FB0960ED77E080E090E00E944E0959
:102470000E94150D81E090E00E94F0110E94200D55
:1024800081E080933A0188E190E09093E2018093AB
:10249000E1010F91EF9008954F925F926F927F92BA
:1024A0008F929F92AF92BF92CF92DF92EF92FF9264
:1024B000CF93DF93EC014A015B0181E08093E0015F
:1024C0002E01612C712C60E072E18AE790E0A3019B
:1024D00092010E94472069017A0181E0C81AD1085F
:1024E000E108F108C114D10481E0E806F10488F0A4
:1024F00068E478EE81E090E0A30192010E94472019
:1025000069017A0181E0C81AD108E108F10883E085
:1025100001C081E090918100987F982B9093810079
:1025200081149104A104B10471F0DE01AA0FBB1F54
:10253000A50194010E94662028EE33E040E050E0BF
:102540000E94792003C02FEF3FEFA901D0928900AC
:10255000C09288002093DC013093DD014093DE01BE
:102560005093DF0180916F00826080936F00DF9154
:10257000CF91FF90EF90DF90CF90BF90AF909F9062
:102580008F907F906F905F904F900895CF93DF93DF
:102590009091DB01923009F46EC0C82F292F30E0F2
:1025A000F901EB58F34FD491F901E359F94F8083C6
:1025B0009F5F9093DB0161E00E945508D13019F0D4
:1025C000D33039F158C01092800010928100809170
:1025D0008100886080938100809181008160809378
:1025E00081008C2F90E0FC01EA5AF34FE491F0E077
:1025F000EE0FFF1FE85BF34F259134913093DA0122
:102600002093D901FC01E75DF34F84918093D801B9
:1026100032C01092900010929100809191008860D9
:1026200080939100809191008160809391008C2F24
:1026300090E0FC01EA5AF34FE491F0E0EE0FFF1F47
:10264000E85BF34F259134913093D7012093D60165
:10265000FC01E75DF34F84918093D5018091DB010C
:10266000882321F06CE380E00E940B0A80E0DF9178
:10267000CF910C94F60ADF91CF910895FC018091DF
:10268000D401811103C08FEF9FEF08959FB7F89495
:1026900082E08093E9002091F20030E012161306E8
:1026A00014F421E030E02115310559F0289884E632
:1026B0008093D3018091F10080838091F200882380
:1026C00019F09FBFC90108958BE68093E800F9CF08
:1026D000CF93DF931F92CDB7DEB7FC01848595853C
:1026E00097FD05C02FEF3FEF358724870BC0CE0144
:1026F00001960E943E13019719F4898190E002C06F
:102700008FEF9FEF0F90DF91CF9108958091650635
:1027100081110DC082E08093610684E0809362069F
:10272000109264061092630681E08093650681E64C
:1027300096E00895FC018485958597FD0BC09FB7B1
:10274000F89482E08093E9008091F2009FBF90E0CE
:10275000019608959FB7F89482E08093E9008091F4
:10276000F2009FBF90E008954091C4065091C506C5
:102770002091C2063091C30642175307B4F49091DA
:10278000E8009570E1F39091E80092FD19C0809304
:10279000F1008091C4069091C50601968F73992728
:1027A000892B19F48EEF8093E8008091C4069091F4
:1027B000C50601969093C5068093C40681E00895EE
:1027C00080E00895CF92DF92EF92FF920F931F93D4
:1027D000CF93DF931F92CDB7DEB7182F062FE42ECD
:1027E000862F880F8E5F99830E94B41383E00E9426
:1027F000B413F12EC12E9981D92E8C2D8F198017EB
:1028000098F4F601E7FE02C0849101C080810E9425
:10281000B413182F80E00E94B4138123FFEFCF1A66
:10282000DF0A8111EACF01C081E00F90DF91CF91E3
:102830001F910F91FF90EF90DF90CF900895DF925E
:10284000EF92FF920F931F93CF93DF93D82E8A01BD
:102850007B01E40EF51EEB01CE15DF0571F0D7FE0E
:1028600003C0FE01849101C088810E94B4132196A7
:102870008111F2CF8FEF9FEF01C0C801DF91CF919F
:102880001F910F91FF90EF90DF900895615030F00D
:102890002091F100FC0120830196F8CF289884E66E
:1028A0008093D30108950F931F93CF93DF931F92CB
:1028B000CDB7DEB78C01FC018485958597FF0EC0EE
:1028C000CE0101960E943E13019719F4298130E050
:1028D00002C02FEF3FEFF80135872487F801848588
:1028E00095850F90DF91CF911F910F9108950F93D0
:1028F0001F93CF93DF931F92CDB7DEB782E089831A
:1029000042E450E067EB7EE080E80E941F140E94E2
:102910008613DC0112960D911C9113970115110578
:1029200069F0D801ED91FC910280F381E02DBE01A8
:102930006F5F7F4FC801099597FF07C089810F908E
:10294000DF91CF911F910F910895F80100851185B6
:10295000E5CF1F920F920FB60F9211248F939F9382
:102960008091E1009091E100937F9093E10083FFDB
:102970000FC01092E90091E09093EB001092EC00F0
:1029800092E39093ED001092D40198E09093F000C0
:1029900082FF20C093E09093E9009091F200992388
:1029A00019F09AE39093E8009091D101992339F0BE
:1029B0009091D10191509093D101992389F19091F7
:1029C000D301992339F09091D30191509093D30181
:1029D000992341F184FF10C08091E2008E7E8160D6
:1029E0008093E2008091E1008F7E8093E1008091EE
:1029F000D2018E7E806111C080FF16C08091E200FE
:102A00008E7E80618093E2008091E1008E7E8093D3
:102A1000E1008091D2018E7E81608093D20104C05A
:102A20005D9ACDCF289AD6CF9F918F910F900FBEF0
:102A30000F901F9018951F920F920FB60F921124AE
:102A4000CF92DF92EF92FF920F931F932F933F93BA
:102A50004F935F936F937F938F939F93AF93BF93A6
:102A6000EF93FF93CF93DF93CDB7DEB76C97DEBFC5
:102A7000CDBF1092E9008091E80083FFEDC168E0CE
:102A8000CE0145960E94461482EF8093E8008D891E
:102A900087FF05C09091E80090FFFCCF03C09EEF38
:102AA0009093E800982F907609F0C6C09E892F89F0
:102AB000188D91110CC0803829F48091C106809343
:102AC000F10002C01092F1001092F10048C1422FB3
:102AD00050E0512B913051F4811141C141305105E9
:102AE00009F03DC18091C1068D7F0BC0933061F428
:102AF000811135C14130510509F031C18091C106C4
:102B000082608093C1062BC1953041F48091E8002A
:102B100080FFFCCF20682093E30021C1963009F0AC
:102B20005FC0EB8CFC8C1092E9001092C5061092ED
:102B3000C406123091F51092C3061092C2060E948C
:102B4000771499E0BE016F5F7F4FDB01E92F1D9283
:102B5000EA95E9F799831A8391E09E8390EA988732
:102B60009AEF99872091C4063091C506275F3F4FA1
:102B70003C832B838D831092E9001092C50610923E
:102B8000C406F092C306E092C20649E050E080E03D
:102B90000E941F140E947714E2C0F092C306E092D4
:102BA000C2060E948613DC011296ED90FC901397EA
:102BB000E114F10409F4C0C0D701ED91FC91048047
:102BC000F581E02DBE016B5E7F4FC701099500972F
:102BD00019F00CF0C4C0C7C0F701E084F184E8CF5D
:102BE000973009F4C0C0983021F481E08093F1005F
:102BF000B6C0993009F0B3C0837009F0B4C0EEE7F5
:102C0000F1E081E021E036E39081992361F0809347
:102C1000E9002093EB0091919093EC003093ED004C
:102C20008F5F873089F78EE78093EA001092EA0081
:102C30008F898093D40193C08B8D9C8D1092E90075
:102C40001092C5061092C4069093C3068093C206E4
:102C5000898D811156C08E899D89913A59F48132AE
:102C600009F081C047E050E062E371E080E00E943B
:102C70001F1475C0913209F076C0833289F4888DB3
:102C800090E0982F88272F89822BA0E0B0E08093D6
:102C9000450190934601A0934701B09348015FC05E
:102CA000803269F48091E80082FFFCCF67E082E324
:102CB00091E00E9446148BEF8093E80006C08232B8
:102CC00009F04DC08F89809339018091C006882317
:102CD00019F0EEEFFAE002C0E0E0F8E08091320196
:102CE00090913301A0913401B0913501803B944023
:102CF000A105B10509F07BC08091390180FF93C027
:102D000076C00E948613DC0112960D911C911397D8
:102D10000115110541F1D801ED91FC910190F0816F
:102D2000E02DBE016B5E7F4FC8010995811117C070
:102D3000F80100851185ECCF113009F44EC0133035
:102D400091F48F89882309F445C0823081F440E8EA
:102D500060E18BE19FE00E94E213882321F08EEF77
:102D60008093E80079C081E28093EB0075C08130E8
:102D700029F440E86BE08FE09FE0EDCF833099F7D6
:102D80000E948613DC011296ED90FC9013978E0141
:102D90000F5F1F4F6801E114F10479F0D701ED9145
:102DA000FC910680F781E02DB801C7010995080F55
:102DB000111DF701E084F184EECFD8011C92F601D9
:102DC00001900020E9F73197BF016C197D0940E0BF
:102DD000C601C1CF69EF7EE002C06DEF7EE06115F4
:102DE000710509F2FB01449150E080E840CF0FB635
:102DF000F894A8958091600088618093600010929B
:102E000060000FBEA895EE3F2AE0F20739F08091EE
:102E1000FE0A9091FF0A91838083A1CF1092FF0A4E
:102E20001092FE0A9CCFEE3F8AE0F80731F08081D5
:102E300091819093FF0A8093FE0A87E797E7918339
:102E400080839BE088E10FB6F894A895809360009A
:102E50000FBE9093600083CF6C960FB6F894DEBFE0
:102E60000FBECDBFDF91CF91FF91EF91BF91AF9199
:102E70009F918F917F916F915F914F913F912F9192
:102E80001F910F91FF90EF90DF90CF900F900FBEAA
:102E90000F901F901895789484B5826084BD84B596
:102EA000816084BD85B5826085BD85B5816085BD45
:102EB00080916E00816080936E00109281008091FD
:102EC0008100826080938100809181008160809385
:102ED00081008091800081608093800080919100CA
:102EE0008260809391008091910081608093910035
:102EF000809190008160809390008091C1008460F7
:102F00008093C1008091C10082608093C100809154
:102F1000C10081608093C1008091C3008160809373
:102F2000C3008091C00082608093C0008091C20085
:102F300081608093C20080917A00846080937A00DF
:102F400080917A00826080937A0080917A0081601B
:102F500080937A0080917A00806880937A00109242
:102F6000D4011092C1061092D2018091D7008160E5
:102F70008093D70080EA8093D80089B5806189BDAD
:102F800089B5826089BD09B400FEFDCF61E070E0C3
:102F900080E090E00E944E098091D8008F7C806193
:102FA0008093D8008091E000807F8093E000809142
:102FB000E1008E7E8093E1008DE08093E200559ADF
:102FC000209AEEEFFFE7859194918B3F9C4D19F489
:102FD00081E08093C006CFB7F8948091A801811159
:102FE00027C0E7E6FCE08491EAE3FCE09491E82F57
:102FF000F0E0EE0FFF1FE856FE4FA591B491EC9163
:10300000E92321F461E081E10E94F20761E081E1BE
:103010000E9455088CB580618CBD8CB580648CBDD8
:1030200061E08FE00E94550861E080E10E94550850
:103030008091A8018F5F8093A801CFBFC3EBD1E03F
:10304000FE018491229631966491882319F00E94A2
:103050005508F6CF61E086E00E94F20761E070E07B
:1030600080E090E00E944E0960E086E00E94F20756
:103070006AE070E080E090E00E944E0961E086E046
:103080000E94F207E2E6FCE0E491F0E0EE0FFF1FA1
:10309000E85BF34F859194919093AE018093AD01DD
:1030A000E5E3FCE0E491E093AC01EAE5FCE0E491C7
:1030B000F0E0EE0FFF1FE85BF34F85919491909342
:1030C000AB018093AA01EDE2FCE0E491E093A90159
:1030D0008CB58C7F8CBD8DB581608DBDE091AD01CF
:1030E000F091AE0190818091AC01982B9083A091DA
:1030F000AA01B091AB012C919091A90190959223D6
:103100009C939081809589238083E6EAF1E021E019
:10311000E33BF20749F084918EBD00000DB407FE39
:10312000FDCF8EB53196F3CFE091AA01F091AB01BE
:1031300090818091A901892B8083E091AD01F0916C
:10314000AE0190818091AC0180958923808380912C
:103150006400816080936400809164008260809349
:1031600064008091640080688093640080916400B2
:103170008064809364008091650081608093650025
:103180000E94DE0987FF1AC080E094E01EBC0000A8
:103190000DB407FEFDCF2EB50197C1F760E070E0DA
:1031A0008AE00E94910860E070E08BE00E94910844
:1031B00060E070E089E00E949108FFCFCEEEDFEF83
:1031C00018E1CC24CA94D12C812F8C1BB601681B2A
:1031D00071098AE00E9491086FEF70E08BE00E9415
:1031E00091086FEF70E089E00E9491080E94E11160
:1031F000EE24E39400E128E548EE50E0BE0184E1CE
:1032000090E00E948A0F8BE592E00E94FB096BE13F
:1032100070E080E090E00E944E09C03F31F46AEF18
:1032200070E080E090E00E944E092196C931D105FE
:1032300059F66EEE72E080E090E00E944E096FEF6A
:1032400070E08AE00E9491086FEF70E08BE00E94CE
:1032500091086FEF70E089E00E94910885E00E947C
:10326000C6128DE00E94C6121092A40182E090E086
:103270000E943F20882369F080916400877F8093BB
:10328000640080916500877F8093650081E0809372
:10329000A7010E941E0E0E9412120E9488096093CC
:1032A000B6017093B7018093B8019093B9018091F2
:1032B00064008E7F8093640087EC80937C0080E2C2
:1032C00080937B0062E070E080E090E00E944E0915
:1032D00080917A00806480937A0080917A0086FDE4
:1032E000FCCFC0917800D0917900C095D0958EE543
:1032F00080937C0062E070E080E090E00E944E09E4
:1033000080917A00806480937A0080917A0086FDB3
:10331000FCCF00917800109179000E9429099B014F
:10332000AC012095309540955095009510950C9FD7
:10333000D0010D9FB00D1C9FB00D11240E9466207E
:103340006B017C010E9429096C0D7D1D8E1D9F1D46
:10335000611571058105910511F00E94362080915B
:10336000640081608093640022242394312C809136
:10337000BE01882399F00E9488090091BA0110913A
:10338000BB012091BC013091BD010617170728072A
:10339000390708F0A3C51092BE01A0C50E94880994
:1033A0000091B6011091B7012091B8013091B90197
:1033B0000F5D1F4F2F4F3F4F06171707280739077D
:1033C00008F08CC58091B501811108C01092B1013F
:1033D0001092B2011092B3011092B401C091300169
:1033E000D0913101D0932F01C0932E018091E10142
:1033F0009091E2019093B0018093AF011092B501DA
:103400000E94DE0987FF03C08AE590E00DC00E949C
:10341000DE0984FF03C08EE091E006C00E94DE0951
:1034200085FF07C084EB90E090932D0180932C01E1
:1034300008C00E94DE0986FF08C010922D0110927C
:103440002C0180913E018093B5018091B5018823C4
:10345000B9F020912C0130912D012115310541F059
:10346000243B310569F4DE01A81BB109CD0104C07C
:10347000FE01E80FF11DCF019093310180933001DF
:103480008091E1019091E2018F9734F08EE290E01B
:103490009093E2018093E1018091E1019091E2013A
:1034A0000A9734F48AE090E09093E2018093E1017E
:1034B00080913001909131018937910534F088E78E
:1034C00090E0909331018093300180913001909190
:1034D000310197FF04C010923101109230018091A8
:1034E000300190913101C817D90759F42091AF01EB
:1034F0003091B0018091E1019091E20128173907E4
:1035000009F160913E0170E080E090E00E9454215A
:103510002DEC3CEC4CE45EE30E9409229B01AC01E3
:103520006091B1017091B2018091B3019091B401A9
:103530000E94AB206093B1017093B2018093B301FC
:103540009093B40120E030E040E850E46091B10194
:103550007091B2018091B3019091B4010E94042254
:10356000181644F41092B1011092B2011092B301F6
:103570001092B401809125018F5F809325018233E1
:1035800019F410921C0104C0883C11F4109225011A
:103590008091400165E00E947622911159C0E0912E
:1035A0002601E81708F054C0F0E0ED5EFE4FC48934
:1035B00080E090E0A0E8BFE380931D0190931E019E
:1035C000A0931F01B093200180E090E0A0ECBFE346
:1035D0008093210190932201A0932301B0932401B1
:1035E0000E9431202EE630E040E050E00E9447206B
:1035F000665F7F4F8F4F9F4F0E945421609313014E
:103600007093140180931501909316010E9431204C
:1036100022E230E040E050E00E944720665F7F4FAA
:103620008F4F9F4F0E945421609317017093180190
:103630008093190190931A01C0931B0181E080933C
:103640001C0110922501809126018F5F8093260135
:1036500080911C01882309F4D4C0C0901301D0903C
:103660001401E0901501F0901601C0913001D09145
:103670003101BE01685F7F4F072E000C880B990B4C
:103680000E9454219B01AC01C701B6010E94172181
:1036900087FFB7C020E030E040E051E4C701B60149
:1036A0000E94AB206B017C01BE01DD0F880B990BE2
:1036B0000E9454219B01AC01C701B6010E94042263
:1036C00018160CF09EC0C0901701D0901801E09021
:1036D0001901F0901A01C091E101D091E201BE01FF
:1036E000685F7F4F072E000C880B990B0E945421B6
:1036F0009B01AC01C701B6010E94172187FF81C061
:1037000020E030E040E051E4C701B6010E94AB2068
:103710006B017C01BE01DD0F880B990B0E945421C7
:103720009B01AC01C701B6010E94042218160CF0DF
:1037300068C080911B01811120C080913B018630BF
:1037400068F440E550E060E070E08BE092E00E94B9
:103750004C1280913B018F5F80933B0110921C01C2
:1037600080E090E0A0E0B3E4809313019093140113
:10377000A0931501B093160144C0813069F4E3E0D1
:10378000F1E08081843010F48F5F8083319691E086
:10379000E331F907B1F72BC0823099F4E3E0F1E0AF
:1037A0008081882311F0815080833196A1E0E3313C
:1037B000FA07B1F740E550E060E070E083E890E0A0
:1037C0001CC0833059F410923F018093420140E5C0
:1037D00050E060E070E086E091E00FC0843089F452
:1037E000E3E0F1E08193B1E0E331FB07D9F740E595
:1037F00050E060E070E08BE092E00E944C1210928A
:103800001C0180914301882341F080914401811182
:1038100004C081E0809344010DC080913F018F5F1F
:10382000883C19F080933F0105C010923F0181E070
:10383000809342010E944B0D8091420190E0ECEE9A
:10384000F1E020E030E02817390764F4408141506E
:103850004083411103C0DF0111971C922F5F3F4F3E
:103860003A96F1CFCBEED1E0F3EECF2EF1E0DF2EA2
:103870008601A12CB12C8091420190E0A816B906D6
:103880000CF0C7C08881882309F4BCC0F8014080CF
:10389000518062807380E0903001F0903101B70177
:1038A000685F7F4F072E000C880B990B0E945421F4
:1038B0009B01AC01C301B2010E94172187FFA2C086
:1038C00020E030E040E051E4C301B2010E94AB20AF
:1038D0002B013C01B701FF0C880B990B0E9454216E
:1038E0009B01AC01C301B2010E94042218160CF026
:1038F00089C0D80114964D905D906D907C9017977B
:10390000E090E101F090E201B701685F7F4F072E80
:10391000000C880B990B0E9454219B01AC01C30140
:10392000B2010E94172187FF6DC020E030E040E027
:1039300051E4C301B2010E94AB202B013C01B7014D
:10394000FF0C880B990B0E9454219B01AC01C30111
:10395000B2010E94042218160CF054C040E550E059
:1039600060E070E088E891E00E944C128091400194
:103970008F5F80934001188290914101891708F46C
:1039800041C020913C0130913D013093A60120932C
:10399000A501C90163E070E00E948222892B11F425
:1039A00082E003C080913E018F5F80933E01809151
:1039B0003E01809302012F5F3F4F30933D012093E2
:1039C0003C010E94150D0E94200D81E090E00E94B4
:1039D000F0110E94E111EE24E39400E320E646E2B8
:1039E00052E06AE070E081E190E00E94F4108BE523
:1039F00092E00E94FB0960ED77E080E090E00E9499
:103A00004E0907C0BFEFAB1ABB0A2A96065F1F4FCD
:103A100032CF0E94E1110E9488096093B601709331
:103A2000B7018093B8019093B90100E010E0C0E0C5
:103A3000D0E021E0AE01B80187E492E00E94E60BFD
:103A40002196CA30D105A9F70F5F1F4F0F37110517
:103A500071F7E3E0AE2EB12CC0E0D0E080913B01E5
:103A600090E0C817D9077CF4E12C08E028E04EE18B
:103A700052E061E070E0C5010E948A0F2196EAE001
:103A8000AE0EB11CEBCF28E430E030935C062093FF
:103A90005B0630925E0620925D0660E287E492E06B
:103AA0000E940D0C63E487E492E00E940D0C6FE429
:103AB00087E492E00E940D0C69E487E492E00E94A2
:103AC0000D0C6EE487E492E00E940D0C60E287E446
:103AD00092E00E940D0C6091400170E080E090E067
:103AE0004AE00E94A01160E287E492E00E940D0C7F
:103AF00000E010E0C8E3D0E021E0AE01B80187E4C7
:103B000092E00E94E60B2196C034D105A9F70F5F21
:103B10001F4F0F37110571F773E0A72E71E0B72E15
:103B20004501C0E0D0E0D4018D914D018230D9F043
:103B300050F4882391F0813031F5E12C08E028E041
:103B40004EE052E01BC08330A1F08430E1F4E12C60
:103B500008E028E046EF51E011C0E12C08E028E041
:103B600046E152E00BC0E12C08E028E046E052E0DC
:103B700005C0E12C08E028E04EEF51E068E370E07A
:103B8000CE010E94F4102896C038D10561F68091CC
:103B9000E1019091E2018E970CF498C040E550E06D
:103BA00060E070E08EE690E00E944C12409130019F
:103BB00050913101CA01029697FD079663E09595F1
:103BC00087956A95E1F79A012A5F3F4F37FF02C058
:103BD000295F3F4F43E0359527954A95E1F7AC01C2
:103BE000241735076CF0FA01ED5FFE4F6081662304
:103BF00021F061506083C0E009C04F5F5F4FF0CF9C
:103C0000FC01ED5FFE4F21E02083C1E080E090E009
:103C1000F50121915F01820F911DF3E1AF16F1E0F3
:103C2000BF06B1F7892B11F40E94150D8091020196
:103C300080933E01C1110FC02EE031E030932D0181
:103C400020932C0190E09195819591099093010129
:103C5000809300013BC08AE090E09093E201809362
:103C6000E10140EA50E060E070E083E890E00E940B
:103C70004C120E94200D80913B01815080933B01AA
:103C800081110AC068EB7BE080E090E00E944E0961
:103C90000E941E0E0E9412120E948809DC01CB01B4
:103CA0008854944FAF4FBF4F8093BA019093BB019C
:103CB000A093BC01B093BD0180913E0180930201AD
:103CC00081E080933E018093BE0124C06091E101B8
:103CD0007091E2016B3071053CF480913E0190E0FF
:103CE0009093010180930001809100019091010166
:103CF000680F791F7093E2016093E101EE24E39471
:103D000008E028E04EEE51E08091300190913101C1
:103D10000E94F41080911C01882309F4ACC08091AA
:103D20001B01811122C060911701709118018091CF
:103D3000190190911A010E941C214B015C016091B4
:103D400013017091140180911501909116010E9448
:103D50001C21DC01CB01EE24E39408E028E04EE1D5
:103D600052E0B4010E948A0F86C08130F9F460915C
:103D70001701709118018091190190911A010E9408
:103D80001C214B015C016091130170911401809121
:103D90001501909116010E941C21DC01CB01EE243B
:103DA000E39408E028E046EE51E062C08230F9F486
:103DB00060911701709118018091190190911A0179
:103DC0000E941C214B015C01609113017091140150
:103DD00080911501909116010E941C21DC01CB01FC
:103DE000EE24E39408E028E04EED51E041C083303A
:103DF000F9F4609117017091180180911901909167
:103E00001A010E941C214B015C0160911301709109
:103E1000140180911501909116010E941C21DC0172
:103E2000CB01EE24E39408E028E046ED51E020C009
:103E3000843009F560911701709118018091190182
:103E400090911A010E941C214B015C0160911301A9
:103E50007091140180911501909116010E941C210E
:103E6000DC01CB01EE24E39408E028E04EEC51E0C5
:103E7000B4010E94F410C0E0D0E08091420190E0D3
:103E8000C817D9073CF5D60118968C911897882346
:103E9000E1F014966D917D918D919C9117970E9400
:103EA0001C214B015C01F60160817181828193814B
:103EB0000E941C21DC01CB01EE24E39408E028E001
:103EC00046EC51E0B4010E948A0F2196FAE0CF0E31
:103ED000D11CD3CF8BE592E00E94FB0980E090E0FB
:103EE000892B09F444CA0E9400003ECA0F931F9315
:103EF000109272061092710688EE93E0A0E0B0E096
:103F00008093730690937406A0937506B09376061B
:103F100083E691E09093700680936F068FEF9FEF9A
:103F200090937C0680937B0610924A02109249027D
:103F300085E791E090934802809347028CE3809359
:103F40004D0280E18093500210924F0210924E0277
:103F50001092550210925602109257021092580277
:103F60001092590210925C0610925B0610925E0647
:103F700010925D0681E080935F068093BF06E3EEBA
:103F8000F1E080E090E000E010E020E832E440E082
:103F900050E060E871E4008311832283338344831B
:103FA000558366837783DC01AD51BE4F18961C9212
:103FB000189719961C920A963A968436910559F7E5
:103FC0001F910F9108958F929F92AF92BF92CF92BF
:103FD000DF92EF92FF92CF93DF93EC0168817981BA
:103FE0008A819B81611571058105910521F464E247
:103FF00079ED8BE597E02DE133EF41E050E00E9451
:10400000472049015A019B01AC01A7EAB1E40E9493
:1040100066206B017C01ACEEB4EFA50194010E9417
:104020007420DC01CB018C0D9D1DAE1DBF1DB7FFA3
:1040300003C00197A109B04888839983AA83BB83F1
:10404000BC01CD019F77DF91CF91FF90EF90DF9082
:10405000CF90BF90AF909F908F9008950E94E31FE4
:10406000089589E491E00E94E31F08956093490157
:1040700070934A0180934B0190934C010895F999F4
:10408000FECF92BD81BDF89A992780B50895052E7F
:1040900097FB1EF400940E945E2057FD07D00E94FB
:1040A000792007FC03D04EF40C945E205095409587
:1040B000309521953F4F4F4F5F4F089590958095D4
:1040C000709561957F4F8F4F9F4F08950E949B2061
:1040D000A59F900DB49F900DA49F800D911D11245C
:1040E0000895B7FF0C9466200E946620821B930BF4
:1040F0000895A1E21A2EAA1BBB1BFD010DC0AA1F29
:10410000BB1FEE1FFF1FA217B307E407F50720F040
:10411000A21BB30BE40BF50B661F771F881F991FBB
:104120001A9469F760957095809590959B01AC0104
:10413000BD01CF010895A29FB001B39FC001A39F0D
:10414000700D811D1124911DB29F700D811D1124D0
:10415000911D08955058BB27AA270E94C2200C9495
:10416000CA210E94BC2138F00E94C32120F039F4FA
:104170009F3F19F426F40C94B9210EF4E095E7FB67
:104180000C94B321E92F0E94DB2158F3BA17620780
:1041900073078407950720F079F4A6F50C94FD21A8
:1041A0000EF4E0950B2EBA2FA02D0B01B901900152
:1041B0000C01CA01A0011124FF27591B99F0593F96
:1041C00050F4503E68F11A16F040A22F232F342FDE
:1041D0004427585FF3CF469537952795A795F0402C
:1041E0005395C9F77EF41F16BA0B620B730B840B41
:1041F000BAF09150A1F0FF0FBB1F661F771F881FF9
:10420000C2F70EC0BA0F621F731F841F48F4879550
:1042100077956795B795F7959E3F08F0B0CF939542
:10422000880F08F09927EE0F9795879508950E94BB
:104230008F2108F481E008950E9423216894B11130
:104240000C94FE2108950E94E32188F09F5798F076
:10425000B92F9927B751B0F0E1F0660F771F881F8B
:10426000991F1AF0BA95C9F714C0B13091F00E94A5
:10427000FD21B1E008950C94FD21672F782F882748
:10428000B85F39F0B93FCCF3869577956795B395CC
:10429000D9F73EF490958095709561957F4F8F4F3B
:1042A0009F4F0895E89409C097FB3EF49095809540
:1042B000709561957F4F8F4F9F4F9923A9F0F92FEC
:1042C00096E9BB279395F695879577956795B7956A
:1042D000F111F8CFFAF4BB0F11F460FF1BC06F5F50
:1042E0007F4F8F4F9F4F16C0882311F096E911C062
:1042F000772321F09EE8872F762F05C0662371F083
:1043000096E8862F70E060E02AF09A95660F771F96
:10431000881FDAF7880F9695879597F90895990F72
:104320000008550FAA0BE0E8FEEF16161706E8077F
:10433000F907C0F012161306E407F50798F0621BA0
:10434000730B840B950B39F40A2661F0232B242B75
:10435000252B21F408950A2609F4A140A6958FEF94
:10436000811D811D089597F99F6780E870E060E0E6
:1043700008959FEF80EC089500240A9416161706FE
:1043800018060906089500240A9412161306140646
:1043900005060895092E0394000C11F4882352F0A9
:1043A000BB0F40F4BF2B11F460FF04C06F5F7F4F61
:1043B0008F4F9F4F089557FD9058440F551F59F048
:1043C0005F3F71F04795880F97FB991F61F09F3F02
:1043D00079F087950895121613061406551FF2CF2B
:1043E0004695F1DF08C0161617061806991FF1CF7B
:1043F00086957105610508940895E894BB276627A2
:104400007727CB0197F908950E948F2108F48FEF49
:1044100008950E941C220C94CA210E94BC2138F0ED
:104420000E94C32120F0952311F00C94B3210C9429
:10443000B92111240C94FE210E94DB2170F3959F79
:10444000C1F3950F50E0551F629FF001729FBB278B
:10445000F00DB11D639FAA27F00DB11DAA1F649F27
:104460006627B00DA11D661F829F2227B00DA11DDA
:10447000621F739FB00DA11D621F839FA00D611D60
:10448000221F749F3327A00D611D231F849F600D81
:10449000211D822F762F6A2F11249F5750409AF0AA
:1044A000F1F088234AF0EE0FFF1FBB1F661F771F36
:1044B000881F91505040A9F79E3F510580F00C9401
:1044C000B3210C94FE215F3FE4F3983ED4F386952C
:1044D00077956795B795F795E7959F5FC1F7FE2BA1
:1044E000880F911D9695879597F90895991B79E006
:1044F00004C0991F961708F0961B881F7A95C9F774
:104500008095089597FB072E16F4009407D077FD49
:1045100009D00E949C2207FC05D03EF4909581951D
:104520009F4F0895709561957F4F0895EE0FFF1F7F
:104530000590F491E02D0994AA1BBB1B51E107C023
:10454000AA1FBB1FA617B70710F0A61BB70B881F23
:10455000991F5A95A9F780959095BC01CD010895B2
:0E45600081E090E0F8940C94B522F894FFCF1F
:10456E00010002010203040304030201020102031B
:10457E00030403000000430000004200000000009E
:10458E000000000000000000010203040E011400F0
:10459E00140000E100000000000001030100020011
:1045AE0000140A0000FFFFFFFF01000000010203DC
:1045BE0004030403020102010203030403010000C9
:1045CE00000000E00E050F010FF60E9A136813534C
:1045DE0014000000000D0CC107ED07EC0700C180B0
:1045EE00810000004A554D5020424F5900207265FF
:1045FE00636F72643A200050726573732041206FAE
:04460E0072204200D4
:2070000055C000006EC000006CC000006AC0000068C0000066C0000064C0000062C0000043
:2070200060C000005EC00000F2C400005AC0000058C0000056C0000054C0000052C00000EE
:2070400050C0000078C000004CC000004AC0000048C0000046C0000044C0000042C00000BE
:2070600040C000003EC000003CC000003AC0000038C0000036C0000034C0000032C0000048
:2070800030C000002EC000002CC000002AC0000028C0000026C0000024C0000022C00000A8
:2070A00020C000001EC000001CC0000011241FBECFEFDAE0DEBFCDBF11E0A0E0B1E0E2E3BC
:2070C000FFE702C005900D92A83AB107D9F711E0A8EAB1E001C01D92AE3BB107E1F78FD30B
:2070E00026C78ECFF89410926F0010928100109285001092840081E085BF15BE47985D9AEB
:20710000289A0C94000008952091B2013091B3012F5F3F4F3093B3012093B201932F37FFA6
:2071200003C08EEF831B982F990F921710F447980895479A08951F920F920FB60F9211246E
:207140002F938F939F93EF93FF9310928500109284008091A8019091A901009741F00197D3
:207160009093A9018093A801892B09F45D9A8091AA019091AB01009741F001979093AB0126
:207180008093AA01892B09F4289AE0E0F0E0859194918F5F9F4F49F08091AC019091AD0151
:2071A00001969093AD018093AC01FF91EF919F918F912F910F900FBE0F901F90189584E0BC
:2071C0008093E9000DC08091E8008B778093E80003C08EB3882351F08091E80082FFF9CFBE
:2071E0008091E80085FFEFCF8091F1000895982F83E08093E9008091E80085FD0DC0809136
:20720000E8008E778093E80003C08EB3882369F08091E80080FFF9CF9093F1005D9884E6CB
:2072200090E09093A9018093A80108954F925F926F927F928F929F92AF92BF92CF92DF921E
:20724000EF92FF920F931F93CF93DF9384E08093E9008091E80082FF57C2289884E690E067
:207260009093AB018093AA01AADF182F853481F48CE49DE19093AD018093AC0107B600FC4B
:20728000FDCFF999FECF81E180935700E89503C0843519F494DF8DE00DC28C34E1F38035F9
:2072A000D1F3843721F484E4A2DF80E003C2813611F489E5FFC18134B1F481DF182F7FDFE3
:2072C00090E0880F991FAA2797FDA095BA2F312F330F20E0442737FD4095542F822B932B68
:2072E000A42BB52BB8C1803711F483E5E3C1833549F4C0E0D1E089917ADF21E0C730D20714
:20730000D1F7D9C1863521F481E371DF80E3D2C1833731F487E86BDF85E969DF8EE1CAC149
:207320008536B9F4E0E0F0E093E085E090935700E89507B600FCFDCF80935700E89507B65D
:2073400000FCFDCFE058FF4FA0E7E030FA0771F7A2CF823739F4E1E0F0E089E08093570024
:207360008491A8C1863439F4E0E0F0E089E08093570084919FC18E3439F4E3E0F0E089E0E5
:2073800080935700849196C1813539F4E2E0F0E089E08093570084918DC1823631F489E521
:2073A00026DF80E024DF80E885C1823419F0873609F0E5C01092AD011092AC0100DF082FE8
:2073C000FEDEF82EFCDE682E8554823008F071C1902F80E0CF2DD0E0C82BD92B10926F00B3
:2073E000173609F04BC081E180935700E895DD24CC24C3943FC0E090AE01F090AF010091CC
:20740000B0011091B101B6E46B16D9F4ED2DF0E0EE29FF29E4918E2FEADEDD2081F082E08D
:2074200090E0A0E0B0E0E80EF91E0A1F1B1FE092AE01F092AF010093B0011093B101DC2470
:2074400018C0D801C701B695A7959795879559D5CEDE82E090E0A0E0B0E0E80EF91E0A1FF2
:207460001B1FE092AE01F092AF010093B0011093B1012197209709F0BECF7DC08090AE01F5
:207480009090AF01A090B001B090B10196E4691609F05DC083E0F40180935700E89507B63E
:2074A00000FCFDCF54C0F6E46F1661F5772031F1E090AE01F090AF010091B0011091B1019E
:2074C0007EDED82ECC24852D90E08C299D29F7010C0140925700E895112482E090E0A0E08B
:2074E000B0E0E80EF91E0A1F1B1FE092AE01F092AF010093B0011093B10102C060DE582E1A
:20750000742423C0E090AE01F090AF010091B0011091B10116950795F794E79450DE682FFA
:20752000C701F7D48091AE019091AF01A091B001B091B1010296A11DB11D8093AE01909349
:20754000AF01A093B001B093B101219704C05524772444244394209709F0A5CF96E46916B6
:2075600041F485E0F40180935700E89507B600FCFDCF8DE03CDE82E080936F009CC0833492
:2075800071F40091AE011091AF0119DE90E021E0F8010C0120935700E89511247CCE8336C8
:2075A00019F5E090AE01F090AF010091B0011091B10105DEF701E16090E021E00C0120938C
:2075C0005700E895112482E090E0A0E0B0E0E80EF91E0A1F1B1FE092AE01F092AF0100936A
:2075E000B0011093B10157CE8D3661F4E091AE01F091AF0185E080935700E89507B600FCF2
:20760000FDCF49CE823551F4E091AE01F091AF0105911491812FEBDD802F4CC0843421F5FE
:20762000E090AE01F090AF010091B0011091B10116950795F794E794C2DD682FC70169D4DE
:207640008091AE019091AF01A091B001B091B1010296A11DB11D8093AE019093AF01A093D8
:20766000B001B093B10117CE843609F5E090AE01F090AF010091B0011091B101D801C70142
:20768000B695A795979587953CD4B1DD82E090E0A0E0B0E0E80EF91E0A1F1B1FE092AE010A
:2076A000F092AF010093B0011093B10104C08B3111F08FE39CDD83E08093E9009091E8002B
:2076C0008091E8008E778093E80095FF04C010C08EB38823C9F08091E80080FFF9CF809193
:2076E000E8008E778093E80003C08EB3882361F08091E80080FFF9CF84E08093E9008091F1
:20770000E8008B778093E800DF91CF911F910F91FF90EF90DF90CF90BF90AF909F908F90AC
:207720007F906F905F904F9008959091B601892F8F77813249F58091B7018032A1F081328A
:2077400019F5913A09F58091E800877F8093E8008DE091E067E070E00BD28091E8008B770B
:207760008093E8000895913279F48091E800877F8093E8008DE091E067E070E05DD2809192
:20778000E8008E778093E800089582E061EC42E0B5D083E061E842E1B1D084E060E842E1EF
:2077A000ADC084B7877F84BF88E10FB6F89480936000109260000FBE20E880E090E00FB63F
:2077C000F89420936100809361000FBE81E085BF92E095BF3F9A209A559AE1E6F0E02083A1
:2077E000108247985D9A289A109289008AEF8093880090936F0083E080938100F0C0409116
:20780000000850910108109201081092000894B714BE88E10FB6F8948093600010926000D5
:207820000FBE292F30E0F901E270F07091FD18C090FF05C0859194918F5F9F4F81F423FFFF
:207840000FC08091090190910A014817590741F0E0E0F0E0859194918F5F9F4F09F042DC64
:20786000A0DF78941092AD011092AC010CC0DEDC36D38091AC019091AD0181549F4110F00D
:207880001092140141DC80911401882381F78091E00081608093E00025DC80E090E0089598
:2078A000FA01923049F0933061F09130F9F485E191E022E130E01EC087E291E02EE330E04D
:2078C00019C0882329F485E691E024E030E012C0813029F489E691E022E230E00BC0823006
:2078E00029F48DE891E028E130E004C080E090E020E030E091838083C90108958093E9004E
:207900008091EB0081608093EB001092ED006093EC004093ED008091EE00881F8827881F62
:2079200008958091B60188238CF403C08EB38823B1F08091E80082FFF9CF8091E8008B772A
:207940008093E80008958EB3882349F08091E80080FFF9CF8091E8008E778093E800089594
:20796000EF92FF920F931F9345D04CD008ED10E0F80180818F77808380818068808380819B
:207980008F7D808319BC1EBA1092B40180EEE82EF12CF70180818B7F8083F8018081816052
:2079A000808380E060E042E0A9DFE1EEF0E080818E7F8083E2EEF0E0808181608083808144
:2079C00088608083F70180818E7F8083F8018081806180831F910F91FF90EF900895E7ED06
:2079E000F0E08081816080838AE482BF81E08093B501B6CFE8EDF0E080818E7F808310921C
:207A0000E20008951092DA001092E10008951F920F920FB60F9211242F933F934F935F93F6
:207A20006F937F938F939F93AF93BF93EF93FF938091DA0080FF1BC08091D80080FF17C0B2
:207A40008091DA008E7F8093DA008091D90080FF0BC080E189BD82E189BD09B400FEFDCF36
:207A600081E08EBB3BD203C019BC1EBA37D28091E10080FF17C08091E20080FF13C0809138
:207A8000E2008E7F8093E2008091E20080618093E2008091D80080628093D80019BC85E049
:207AA0008EBB1CD28091E10084FF2CC08091E20084FF28C080E189BD82E189BD09B400FEC5
:207AC000FDCF8091D8008F7D8093D8008091E1008F7E8093E1008091E2008F7E8093E20012
:207AE0008091E20081608093E2008091B401882331F48091E30087FD02C081E001C084E067
:207B00008EBBECD18091E10083FF21C08091E20083FF1DC08091E100877F8093E10082E06A
:207B20008EBB1092B4018091E1008E7F8093E1008091E2008E7F8093E2008091E2008061E9
:207B40008093E20080E060E042E0D8DEC7D1FF91EF91BF91AF919F918F917F916F915F9130
:207B60004F913F912F910F900FBE0F901F9018959C014091BC015091BD014617570718F49D
:207B8000F90190E044C06115710511F0AB01F8CF8091E8008E778093E80040E050E0F0CF0F
:207BA0008EB3882309F444C0853009F443C08091E80083FF02C081E008958091E80082FD70
:207BC00031C08091E80080FF22C08091F3009091F200782F60E0292F30E0262B372B07C07A
:207BE00081918093F100415050402F5F3F4F4115510519F02830310598F390E02830310566
:207C000009F491E08091E8008E778093E8004115510531F6992321F605C08EB3882341F075
:207C2000853041F08091E80082FFF7CF80E0089582E0089583E008959C016115710529F47C
:207C40008091E8008B778093E800F90126C08EB3882391F1853091F18091E80083FF02C06C
:207C600081E008958091E80082FFF1CF06C08091F10081936150704059F02091F300809191
:207C8000F200322F20E090E0822B932B892B79F78091E8008B778093E80061157105B9F601
:207CA00005C08EB3882341F0853041F08091E80080FFF7CF80E0089582E0089583E00895C2
:207CC0000F931F93DF93CF9300D0CDB7DEB7E6EBF1E08091F100819381E0EE3BF807C9F792
:207CE00024DD8091E80083FFE4C08091B6019091B701953009F46DC0963040F4913081F1A7
:207D0000913070F0933009F0D4C02AC0983009F4A3C0993009F4B2C0963009F0CAC07CC023
:207D2000803809F4C6C0823809F0C3C08091BA0187708093E9008091EB001092E9002091DB
:207D4000E800277F2093E80090E025E0969587952A95E1F781708093F1001092F10087C0D8
:207D6000882319F0823009F0A4C08F71823009F0A0C08091B801882331F52091BA01277097
:207D800009F497C02093E9008091EB0080FF1BC0933021F48091EB00806213C08091EB0018
:207DA00080618093EB0081E090E002C0880F991F2A95E2F78093EA001092EA008091EB00E5
:207DC00088608093EB001092E9008091E800877F51C0882309F06DC01091B8011F770FB79B
:207DE000F8948091E800877F8093E8009ADD8091E80080FFFCCF8091E3008078812B809398
:207E0000E30080688093E300112311F482E001C083E08EBB0FBF4DC08058823008F049C033
:207E20008091B8019091B9016091BA01AE014F5F5F4F36DDBC01009709F43BC08091E8008E
:207E4000877F8093E80089819A8192DE8091E8008B778093E8002DC0803859F58091E800AA
:207E6000877F8093E8008091B4018093F1008091E8008E778093E80054DD1BC08823C9F4CA
:207E80009091B8019230A8F48091E800877F8093E8009093B40145DD8091B401882331F420
:207EA0008091E30087FD02C081E001C084E08EBB6CDC8091E80083FF0AC08091EB0080624E
:207EC0008093EB008091E800877F8093E8000F900F90CF91DF911F910F91089508951F9360
:207EE0008EB3882361F01091E9001092E9008091E80083FF01C0E4DE17701093E9001F916F
:207F00000895F999FECF92BD81BDF89A992780B50895262FF999FECF1FBA92BD81BD20BDBD
:207F20000FB6F894FA9AF99A0FBE01960895F894FFCF4341544552494E4100777700080031
:207F40000000000000080112011001020000084123360001000201000109023E00020100FF
:207F600080320904000001020201000524001001042402040524060001070582030800FF0C
:207F800009040100020A000000070504021000010705830210000104030904220341007216
:207FA000006400750069006E006F0020004C0065006F006E006100720064006F0000001836
:1A7FC00003410072006400750069006E006F0020004C004C004300000000D7
:00000001FF
